:020000021000EC
:1000000020C60020A9630100A1830200D96301007A
:10001000D9630100D9630100D9630100D9630100EC
:10002000000000000000000000000000516101001D
:10003000D963010000000000F96001005D4E01007D
:10004000696301006963010069630100696301007C
:10005000696301006963010069630100696301006C
:10006000696301006963010069630100696301005C
:10007000696301006963010069630100696301004C
:10008000696301006963010069630100696301003C
:10009000696301006963010069630100696301002C
:1000A000696301006963010069630100696301001C
:1000B000696301006963010069630100696301000C
:1000C00069630100696301006963010069630100FC
:1000D00069630100696301006963010069630100EC
:1000E00069630100696301006963010069630100DC
:1000F00069630100696301006963010069630100CC
:1001000069630100696301006963010069630100BB
:1001100069630100696301006963010069630100AB
:10012000696301006963010069630100696301009B
:10013000696301006963010069630100696301008B
:10014000696301006963010069630100696301007B
:1001500069630100000000000000000000000000D2
:10016000000000000000000000000000000000008F
:10017000000000000000000000000000000000007F
:10018000000000000000000000000000000000006F
:10019000000000000000000000000000000000005F
:1001A000000000000000000000000000000000004F
:1001B000000000000000000000000000000000003F
:1001C000000000000000000000000000000000002F
:1001D000000000000000000000000000000000001F
:1001E000000000000000000000000000000000000F
:1001F00000000000000000000000000000000000FF
:10020000DEE61E284CBBCE8F023500003C0000000D
:100210003820020001000000000001000000010081
:10022000FFFF02910000000000000000000000003D
:0C023000000000000000000000000000C2
:04023C00FFFFFFFFC2
:1002400053B94AB9002908BF00281CBF4FF0FF313D
:100250004FF0FF3000F070B9ADF1080C6DE904CE3D
:1002600000F006F8DDF804E0DDE9022304B0704791
:100270002DE9F047089E0D4604468A46002B7FD1A3
:100280008A42174641D9B2FA82F24AB1C2F120013C
:1002900005FA02F39740944020FA01F141EA030A7B
:1002A0004FEA17484FEA144C1FFA87F9BAFBF8FED9
:1002B00008FB1EA30EFB09F14CEA0343994206D941
:1002C000FB1802D2994200F224810EF1FF3E591A26
:1002D000A3B2B1FBF8F008FB101100FB09F943EAE7
:1002E0000144A14505D93C1902D2A14500F20E8175
:1002F0000138A4EB090440EA0E4000211EB1D440AD
:100300000023C6E90043BDE8F08702B9FFDEB2FA78
:1003100082F2002A4FD1CB1B4FEA174E1FFA87F803
:100320000121250CB3FBFEFC0EFB1C302B4608FB09
:100330000CF945EA0045A9450AD97D192CBF0123CE
:100340000023A94502D9002B00F0D9800CF1FF3C15
:10035000A5EB0905A3B2B5FBFEF00EFB105508FB9B
:1003600000F843EA0544A04505D93C1902D2A0454E
:1003700000F2C9800138A4EB080440EA0C40BDE754
:100380008B4208D9002E00F0B1800021C6E900059B
:100390000846BDE8F087B3FA83F1002946D1AB42A5
:1003A000C0F0A780824240F2A4800846002EAAD066
:1003B000C6E9004AA7E7C2F12000974001FA02F31C
:1003C0004FEA174EC14024FA00F51FFA87F894400F
:1003D0001D43B1FBFEF02B0C0EFB101100FB08FCC3
:1003E00043EA01439C4509D9FB182CBF0121002198
:1003F0009C4502D9002900F095800138A3EB0C033D
:10040000ADB2B3FBFEF10EFB113301FB08FC45EA74
:100410000345AC4505D97D1902D2AC4500F289806F
:100420000139A5EB0C0341EA00417AE7C1F1200450
:100430008B4002FA01F705FA01FCE24020FA04F8C9
:10044000E54000FA01FE134348EA0C024FEA134864
:100450004FEA124C1FFA83F9B5FBF8FA08FB1A555C
:100460000AFB09F04CEA054C60450AD913EB0C0C69
:100470002CBF01250025604501D9002D55D00AF17A
:10048000FF3AACEB000C92B2BCFBF8F008FB10CCCE
:1004900000FB09F942EA0C4CE14505D913EB0C0CC1
:1004A00001D2E1453BD8013840EA0A40ACEB090CE7
:1004B000A0FB0789CC4545464A4602D306D1C6452E
:1004C00004D20138B8EB070569EB03022EB3BEEB8B
:1004D00005036CEB020C23FA01F20CFA04F42CFA7B
:1004E00001F300211443C6E900430CE731463046CE
:1004F00009E7841A65EB030301209A4656E7ACF13D
:10050000020C3D4424E702383C4434E702383C44C2
:10051000EFE6AEF1020E3B44D9E63146F3E602388F
:100520009C44C1E702383B4468E7AAF1020A9C44B4
:10053000A7E702393D4474E7704700BF00000000A0
:10054000F7B5664DD5F84431996811F001011DD118
:1005500040F6034001AA07F059FA0446002840F08B
:10056000B980019B9B681B786BB908F0E5FC05F12D
:100570009803D3E8AF2F02F00502D3E8EF1FC3E8DA
:10058000E02F0028F9D101980FF08EFD002141F2F3
:10059000030001AA07F03AFA0446002840F09A80C6
:1005A000019B082299684E48013117F0F2FF01982B
:1005B0000FF07AFD214641F2010001AA07F026FA68
:1005C0000446002840F08680019883685A7885F8B0
:1005D0003420D9789A7842EA0122EA861A7985F895
:1005E0003520197ADA7942EA01222A875A799B79E9
:1005F00042EA03236B870FF057FD214641F20200C8
:1006000001AA07F003FA0446002863D1019B4022A7
:1006100099683448013117F0BCFF01980FF044FD90
:1006200008F01EFF0446002854D195F84E309A0673
:100630001AD42D492D4B2E48C91AC908890141F0F9
:10064000020116F075FB95F840305B0654D4274B39
:1006500025492848C91AC908890141F0010116F045
:1006600067FB6FF0120435E0072140F6334007F0D6
:1006700085F9074610B96FF068042BE007210830B0
:100680000FF042FE21460722064617F0ADFF452334
:1006900033700623224674703471394640F6334075
:1006A000F37007F0B3F90446A0B9012140F63140D8
:1006B00007F064F906460028DDD00121083019F062
:1006C000E2FF2246314640F6314007F09FF90446EA
:1006D0000028B8D0204603B0F0BD00BF0080002045
:1006E0003C800020448000201CC00200E4BF0200C7
:1006F000BFF00200EDF00200002142F2030001AA67
:1007000007F084F904460028E4D1019B0822996887
:10071000C548013117F03DFF01980FF0C5FC214697
:1007200042F2020001AA07F071F904460028D1D173
:10073000019B9B68B3F8012091B2A5F8CC2021B1B0
:10074000DA78BA4811461BF04EF901980FF0ACFC6C
:1007500095F8406016F0200600F0068195F86030AC
:100760001F0711D5002142F21C0001AA07F04EF923
:1007700004460028AED10198836853F8012F5B68C6
:10078000C5E92A230FF090FC95F8A0309E0624D5E9
:1007900068460DF1020107F0B1F90446002899D12D
:1007A000042142F2240007F0E9F8064600283FF44D
:1007B00062AF042108300FF0A7FDBDF800302246DB
:1007C0000380BDF802303146438042F2240007F036
:1007D0001DF9044600287FF47DAF95F8A0305C0633
:1007E00010D5002142F22A0001AA07F00FF90446B1
:1007F00000287FF46FAF019883685B7885F8E83054
:100800000FF052FC082142F2010007F0B7F804464D
:1008100000283FF430AF082108440FF075FD95F82B
:10082000A01040F2022311F0400F08BF032302463C
:1008300088074CBF43F02C0043F00C0095F8A13022
:100840008F0648BF40F0400013F0090F95F866305E
:1008500018BF40F4006003F00603CE0748BF40F025
:100860001000062B08BF40F4C070002117F0C4FF31
:100870002146002242F2010007F0C8F80446002891
:100880007FF428AF95F8403098061ED4B5F8CC1008
:10089000D9B941F2050001AA07F0B8F804460028CA
:1008A0007FF418AFB5F8CC3063B9019B9B685A78D8
:1008B000997842EA0122A5F8CC209A885B48114633
:1008C0001BF091F801980FF0EFFB082140F6014072
:1008D00007F054F8044600283FF4CDAE0821084440
:1008E0000FF012FD95F8A0300246D90757D54CA15C
:1008F000D1E9000117F080FF2146002240F60140B7
:1009000007F084F8044600287FF4E4AE014601AA0B
:100910004FF6014007F07AF80446002843D04449D6
:10092000444B4548C91AC908890141F0020116F033
:10093000FFF918F0AEF8044600287FF4CBAE09F0BA
:100940006FFE044600287FF4C5AEEB79002B40F023
:100950008180384B36493948C91AC908890141F0A4
:10096000030116F0E5F9B5E6022140F66D4007F007
:1009700005F8044600283FF47EAE022108300FF04F
:10098000C3FC0123214603704670324640F66D4099
:1009900007F03CF8044600283FF4E0AE9AE64FF03A
:1009A00000512748A6E701980FF07EFB21464FF63D
:1009B000024001AA07F02AF8044640B11C491D4B29
:1009C0002048C91AC908890141F00201AFE7019B1B
:1009D000022299681C48013117F0DBFD01980FF0E5
:1009E00063FB95F885305B07A3D521464FF603409E
:1009F00001AA07F00BF840B10D490E4B1348C91A74
:100A0000C908890141F0020191E70122019B1048C8
:100A10009968114417F0BDFD01980FF045FB88E778
:100A20009088000200800020A0800020D08000205C
:100A30001CC00200E4BF020011F1020087F10200B5
:100A40001088000235F10200858000205EF102006E
:100A5000848000200421034817F0C3FE07F0E0FD66
:100A600038E600BF98800020044A054B0548D21A9A
:100A7000D208920142F0020216F067B96CC002007F
:100A8000E4BF020054CA02000449054B0548C91AD4
:100A9000C908890141F0030116F04AB96CC002008F
:100AA000E4BF020080CA02000449054B0548C91A88
:100AB000C908890141F0020116F03AB96CC0020080
:100AC000E4BF020092CA020038B504460D460B4B43
:100AD0000B490C485B1ADB089B0143F0030116F03D
:100AE00027F92946204604F0E1FF284605F0C0F822
:100AF0002046BDE8384016F0CCBF00BF6CC00200F5
:100B0000E4BF0200A4CA020008B5084618F0E2F8E3
:100B1000014B186008BD00BF24920020074A084B13
:100B2000D21AD208920121B9064842F0030116F008
:100B3000FFB8054842F0020216F007B96CC0020087
:100B4000E4BF0200C0CA0200D2CA02001FB50023DF
:100B500003930F4B0F4801930F4B01A9029316F01B
:100B6000E9FF0E4A0E4B0446D21AD208920140B158
:100B7000014642F001020B4816F0E7F8204604B0A7
:100B800010BD094842F0030116F0D2F8F6E700BFA5
:100B90001D1001002C920020DD0F01006CC002002E
:100BA000E4BF0200EFCA020019CB0200002370B5B7
:100BB00088B0CDE900330293012368468DF80430F4
:100BC00004F028FF1B4804F0D7FD03AA15461A4B72
:100BD00003F11006144618685968083303C4B34279
:100BE0002246F7D11B7829462370032004F0D4FD58
:100BF000124D134A0446AD1AED08AD0140B101464D
:100C0000104845F0010216F0A0F8204608B070BD6B
:100C10000146042004F024FE044620B1014645F0BC
:100C200001020948EFE7094845F0030116F080F892
:100C3000EBE700BF9481002060C102006CC002009D
:100C4000E4BF020037CB02005FCB020084CB02007E
:100C5000F0B587B001AA05461646104B03F1100700
:100C6000144618685968083303C4BB422246F7D1BA
:100C70001B78314623702846094B0A4A04F09CFC35
:100C8000014648B1084A094B0948D21AD2089201D4
:100C900042F0010216F059F807B0F0BD60C1020041
:100CA0002C920020888100206CC00200E4BF02006A
:100CB0009CCB020070B503788AB004460E4607AD9F
:100CC000032B20D8DFE803F002191B1D1149284629
:100CD00017F007FC63781E210493A3783046039332
:100CE000E3780D4A02932379059501936379009384
:100CF000A37915F020FD0AB070BD0849E7E708495F
:100D0000E5E70849E3E70A212846074A15F013FDFD
:100D1000E0E700BFD4CB0200F6CB0200DBCB020041
:100D2000E2CB0200ECCB02000005030010B5044644
:100D300088B018F008F86946FFF7BCFF204609F0B4
:100D400033FC084C084A6846A41A01F0CFFDE408B9
:100D5000A40144F0030401462246044815F0F5FFBF
:100D600008B010BD6CC00200E4BF020019CC020044
:100D7000F0B50E4689B0054617F0E5FF6946FFF766
:100D800099FF2B4C2B4BE41AE408A401F6B16846FA
:100D900001F0ACFD44F003073246274E01463B46C6
:100DA000264815F0E6FF3068A8420DD108F0DEFFB6
:100DB00000230120336004F067FE014620B1204883
:100DC00044F0010215F0C1FF09B0F0BD684601F022
:100DD0008DFD44F00306014632461A4815F0B5FF72
:100DE00019491A4B28460B600CF050F9014620B106
:100DF000174844F0020215F0A8FF0221284617F018
:100E000006FF014658B1134844F0020215F09DFF59
:100E1000094B1B689D4202D12846FFF719FF16F0C7
:100E20006AFE01460028CFD10B4844F00102C9E711
:100E30006CC00200E4BF0200249200202FCC02000C
:100E40004CCC02006ECC0200289200201D0B010049
:100E50007CCC020099CC0200B4CC0200F0B589B081
:100E60000E46054617F06FFF6946FFF723FF124C49
:100E7000124B6846E41A01F039FDE408A401324639
:100E800044F003070E4E01463B460E4815F071FF35
:100E90003068A8420DD108F069FF002301203360BB
:100EA00004F0F2FD014620B1074844F0010215F0BC
:100EB0004CFF09B0F0BD00BF6CC00200E4BF0200EF
:100EC00024920020D1CC02004CCC020010B588B096
:100ED00017F039FF6946FFF7EDFE084C084A6846EF
:100EE000A41A01F003FDE408A40144F00304014640
:100EF0002246044815F029FF08B010BD6CC002005E
:100F0000E4BF0200EECC020030B589B00D4617F008
:100F10001AFF6946FFF7CEFE084C094B6846E41AF3
:100F200001F0E4FCE408A40144F003040146234674
:100F30002A46044815F01DFF09B030BD6CC0020000
:100F4000E4BF020004CD020030B589B00D4617F0B1
:100F5000FAFE6946FFF7AEFE084C094B6846E41AF4
:100F600001F0C4FCE408A40144F002040146234655
:100F70002A46044815F0FDFE09B030BD6CC00200E1
:100F8000E4BF020026CD020070B5036888B0694650
:100F90000546186816460D4CFFF78CFE0C4B68464C
:100FA000E41A01F0A3FCE408A40144F003040146A0
:100FB00023463246074815F0DCFE2B68224693F99B
:100FC0000510054815F0C1FE08B070BD6CC00200E8
:100FD000E4BF020049CD020076CD020010B5044600
:100FE000081F1AF030FE094812F058FA64B1084A96
:100FF000084B2146BDE81040D21AD208920106489B
:1010000042F0020215F0A1BE10BD00BF68850020AD
:101010006CC00200E4BF020084CD02002DE9F84F4D
:1010200007460E460025DFF89480DFF89490AE4224
:101030000ED01C201AF00EFE044660B91C491D4B50
:101040001D48C91AC908890141F0020115F070FE56
:101050000120BDE8F88F721B132A8CBF132292B2B5
:1010600000F1040A02837919504617F092FA238B93
:101070001D44ADB2B54209D17A1912F8012C0D2ADE
:1010800004D10A21E218013311712383D8F800003A
:10109000228B83685146D3F804B04FF0FF33D84712
:1010A0000028C4D0214648461AF088FCBFE700BF9C
:1010B0006CC00200E4BF02009BCD020070920020D1
:1010C000B48500201C2010B51AF0C4FD014660B1A3
:1010D000002303830E4B186883681422DC680431F4
:1010E000A446BDE81040322360470A4B0A490B482A
:1010F000C91AC908890141F0020115F019FEBDE8BD
:10110000104040F267620023054812F0C3BE00BFE2
:1011100070920020E4BF02006CC00200C6CD020045
:101120002087002070B5194811F088F9184D286003
:1011300060B9184B18491948C91AC908890141F002
:10114000010115F0F5FD6FF0050070BD1C201AF0CF
:1011500081FD0446B8B1002611490683114812F0FA
:1011600075FD2868324683680F491B689847002838
:10117000EBD128688368211DDD681422AC46BDE8E8
:101180007040322360476FF00B00DEE7EFCD0200C6
:1011900070920020E4BF02006CC00200F6CD020095
:1011A000C51001002087002025120100F0B5174668
:1011B0008BB00E46054617F0C6FD02A9FFF77AFD73
:1011C000134C144BE41AE408A4019FB902A801F0DF
:1011D0008DFB44F003040146234632460E4815F0C9
:1011E000C8FD0E4B1B689D4202D12846FFF730FD1B
:1011F0000BB0F0BD02A801F079FB44F002040146F7
:101200003B4632460648ADF8004015F0CBFDE8E716
:101210006CC00200E4BF02000ACE0200249200204B
:1012200028CE020070B50B780C46052B00F2AD807D
:10123000DFE803F003AC38849D608B68002B00F07E
:10124000A4804868002800F0A0805B4A13683BB384
:10125000181F00231360594A13601AF0F4FC00228F
:101260000023574812F0ACF80146002800F08D80AA
:10127000544B0A8B1868836804315C684FF0FF3365
:10128000A047002800F081804F49504B5048C91AB0
:10129000C908890141F00201BDE8704015F048BD60
:1012A0000438DAE700254868E268838A011F13449E
:1012B0009BB2484A142B15708382154604D1BDE8B1
:1012C000704045481AF07ABB034413F8013C0A2BDE
:1012D00001D00D2B59D140481AF070FB62683F4B8A
:1012E0001A6001232B70374B18688368BDE8704083
:1012F0005B6918471C201AF0ADFC014660B1002361
:101300000383304B186883681422DC683223A446B8
:101310000431BDE8704060472C4B2B493048C91A56
:10132000C908890141F0020115F002FDBDE87040D5
:1013300040F2676200232B4812F0ACBD1C201AF06B
:1013400089FC014650B1BDE87040002303831D4B6A
:1013500014221868043183681B6918471A491B4B0B
:101360001F48C91AC908890141F0020194E7194DC3
:101370002B7853B1194C48682368984205D004383B
:101380001AF061FC00232B70236070BD0A4B1A68B1
:101390000AB94A681A60094AA16810681C680144C1
:1013A000084B1160A28A1868521A836821445D684C
:1013B0004FF0FF33AC46ACE7189200201C9200209F
:1013C000B4850020709200206CC00200E4BF0200CF
:1013D0004CCE020024A400209885002020920020FA
:1013E000C6CD0200208700202DE9F043414885B09A
:1013F00009F0BEF8404C414BE41AE408A40138B1AE
:101400003F4844F0010115F093FC05B0BDE8F083BE
:1014100007F01EF9054630B101463A4844F0010292
:1014200015F093FCF1E744F00301374815F080FC18
:1014300016F0BCF8354808F0F7FA01AB1E46344AFE
:1014400007CA83E8070056F8043B98470028DCD118
:101450000135032DF7D12F4815F060F9012004F074
:1014600013FB054620B1014644F001022A48D7E7A4
:101470002A4844F0030115F05BFC4FF0FF37DFF81A
:10148000A480DFF8A490022141F20540009506F007
:1014900075FA064678B9484615F040F93A460021F3
:1014A0001F4844F0030315F064FC00214FF4004092
:1014B00013F0B4FEE7E7022108300EF025FF3146B5
:1014C000057045706A4641F2054006F09FFA0146F4
:1014D000009841B128B183681A78404615F01EF98A
:1014E000DCE70246F9E7836893F903700EF0DCFD50
:1014F000D4E700BF488100206CC00200E4BF0200B6
:101500006ACE020096CE0200B5CE02006C810020A9
:1015100074C10200CBCE02004CCC0200F4CE02001B
:1015200056CF020035CF020012CF020030B50A4C70
:101530000A44914200D130BD11F8013B58400309E3
:10154000E35C83EA0013DDB2C3F30313E05C80EADB
:101550000510C0B2EDE700BF7FCF0200436870B551
:1015600003F00303022B04460E46816010D0032BC8
:1015700004D0012B0FD10025284601E0056800208A
:101580000023636010B1314614F03CFF284670BD63
:1015900000250068F4E74523054A0649064815F08A
:1015A000BDF84521024815F05EFB0025E7E700BFC6
:1015B0008FCF0200E4DE0200B2CF02000B680133DD
:1015C0000B60014B1B6818479C810020014B186081
:1015D000704700BF9C81002007B50B4600210246E2
:1015E0000191034801A900F05FFC03B05DF804FB22
:1015F000BD15010030B5002585B0CDE901010446D7
:1016000001A90548039500F04FFCDDE9023098423E
:10161000B8BF255405B030BDF76602002DE9F04F84
:10162000B0F81C9085B019F0080F0446039222D040
:1016300001290CBF49F0100949F02009A0F81C90BD
:101640001434204611F0D6FB68B9AC239E4A9F495A
:101650009F4815F063F821469E4815F05FF8AC21CD
:10166000994815F000FB039B83F31188BFF36F8F3C
:1016700005B0BDE8F08F984FDFF8548209F00709F4
:10168000022906D1204615F063F80028D8D0012899
:1016900068D1D4F818B0A38BBBF1000F0ADA00268A
:1016A000256823F00703C4E9006643F00103A38320
:1016B000019627E003F00702511F012934D80021C9
:1016C00023F00703062A25689BB2C4E900110CD158
:1016D0008D422A4638BF0A462AB1E18B1268013191
:1016E000E183002AF8D143F002032046A38315F0DA
:1016F0002FF806460028DBD0A38B43F02003A383FA
:1017000000230193A38B03F007024A45029203D002
:10171000A268002A40F0F0801DB9019A002A00F06A
:1017200036814FF00009E9E0042A0ED123F00703C7
:101730009AB22046A28315F00BF8054618B142F084
:101740002002A28300250195DCE7404640F21B13EE
:101750003A46624914F0E2FF40F21B11384615F098
:1017600082FAEFE7032835D1B9F1000F0BD04046DC
:101770005B494FF4AB733A4614F0D0FF4FF4AB71B2
:10178000384615F070FA23685BB94046554940F277
:1017900057133A4614F0C2FF40F25711384615F07D
:1017A00062FA23691B6801935BB940464E494FF4C6
:1017B000AD733A4614F0B2FF4FF4AD71384615F0F0
:1017C00052FAA38B23F0070343F006030025A383FB
:1017D000AB4697E7042832D1B9F1020F0BD040464F
:1017E000424940F25D133A4614F098FF40F25D1111
:1017F000384615F038FAE38B5BB140463C494FF46C
:10180000AF733A4614F08AFF4FF4AF71384615F0C3
:101810002AFA23695B6801935BB94046324940F27A
:1018200061133A4614F07AFF40F26111384615F020
:101830001AFAA38B23F0070343F00403C6E7052835
:1018400032D1B9F1010F0BD040462A494FF4B2739F
:101850003A4614F063FF4FF4B271384615F003FABC
:1018600023685BB940461F4940F265133A4614F0BD
:1018700055FF40F26511384615F0F5F923699B686C
:1018800001935BB9404618494FF4B4733A4614F0DB
:1018900045FF4FF4B471384615F0E5F9A38B23F0FA
:1018A000070343F0050391E7002540F26B133A4626
:1018B00040460A4914F032FF40F26B11384615F0E9
:1018C000D2F9019584E700BF72D0020098D00200DF
:1018D000B2CF0200AFD00200CFCF0200E4DE0200A0
:1018E000F1CF0200FDCF020020D0020037D002006D
:1018F0004DD002005CD002004FF0010943F0080314
:1019000004F1140A5046A38311F074FA68B9AC23A9
:101910004046394A394914F001FF5146384814F01D
:10192000FDFEAC21344815F09EF9039B83F311882A
:10193000BFF36F8FB9F1000F38D1002D4BD1019B50
:1019400013B120462F4998474FF02003EFF3118B36
:1019500083F31188BFF36F8F5046CDF80CB011F0B0
:101960003BFA68B981234046234A274914F0D6FE42
:101970005146264814F0D2FE81211F4815F073F914
:10198000504611F045FAA38B23F00803A383A38BE1
:10199000DA0628D5012123F01003A383B4F81C90A4
:1019A00009F0070900297FF46BAE49E6A168002918
:1019B000C3D00B68002B38BF002399464B682046E4
:1019C0001E46029A5B46B047B9F1000FB5D04946B2
:1019D000D9F80030EEE729465B462046029A2D688A
:1019E00014F0D2FEA9E713F020011EBF23F020035C
:1019F0000221A383D2E700BF72D0020098D0020078
:101A0000AFD00200111A0100C4D00200D9D00200E8
:101A1000F8B504460D4600F114064FF02003EFF32D
:101A2000118783F31188BFF36F8F304611F0D4F91B
:101A300068B981230B4A0C490C4814F06FFE3146FB
:101A40000B4814F06BFE8121064815F00CF9304666
:101A500011F0DEF93A462046A5610121BDE8F840C3
:101A6000FFF7DCBD72D00200C4D00200B2CF02008A
:101A7000D9D002002DE9F04704460F4614F09AFE33
:101A8000051E5EDB04F114094FF02003EFF3118A09
:101A900083F31188BFF36F8F484611F09DF968B941
:101AA0008123384A3849394814F038FE49463848C5
:101AB00014F034FE8121334815F0D5F8484611F072
:101AC000A7F94FF6FF71E38BA28B8B4202F007065A
:101AD00050D0022E24D135464FF001080133E38364
:101AE000484611F087F968B9AC23264A29492748A6
:101AF00014F014FE4946284814F010FEAC21214889
:101B000015F0B1F88AF31188BFF36F8FB8F1000FA9
:101B100017D0002332463946204614F035FE10E037
:101B2000930701D0062E0FD100233B606368F3B901
:101B3000C4E900773546FEB9524602212046FFF738
:101B40006DFD2846BDE8F087052E18D0012E0BD07C
:101B500012490E4840F2C913114A14F0DFFD40F259
:101B6000C9110F4815F07FF86FF0040504E01F60FD
:101B70006760DFE76FF00A054FF00008B0E76FF02D
:101B80008505F9E772D00200C4D00200B2CF02008E
:101B9000D9D0020098D00200AFD002005CD0020081
:101BA000CFCF0200F8B50E46002943D005680122C8
:101BB000AB682846B3F5004F2CBF082404240C1B47
:101BC000641BE408214614F021FEC3070DD49A23B8
:101BD000194A1A491A4814F0A1FD3146194814F05F
:101BE0009DFD9A21144815F03EF82146284614F030
:101BF00023FE271839460022284614F007FE3F1A14
:101C0000BC420DD0A2230C4A0F490D4814F086FDAA
:101C100031460E4814F082FDA221074815F023F842
:101C200021462846002214F00DFE2146BDE8F8406A
:101C300014F043BFF8BD00BFF1D0020012D1020082
:101C4000B2CF020023D102005BD1020081D1020099
:101C50002DE9F04706681446B3684A42B3F5004FD1
:101C60002CBF0825042502EA010731EA02021ED032
:101C7000BD4228BF3D46B946CF1B07F1FF3A1AEADD
:101C8000070F0ED0354940F20D13354A354814F090
:101C900045FD354814F042FD40F20D11304814F076
:101CA000E2FF74B94FF000094846BDE8F087A94249
:101CB00004D82146BDE8F04714F041BF4FF00009B9
:101CC000DBE7B368B3EBD40FECD93919491B3046C5
:101CD00014F0D4FD0146304614F05AFE8046002828
:101CE000E0D0B36809EBC005B3F5004F2CBF082363
:101CF00004231D44354455447F422F40A7EB090976
:101D00004C44A9EB030307349B1B24F00704A41BDA
:101D1000B0EBD30F4FEAD3074FEAE40408D20146F1
:101D20003A46304614F0DEFD4146304614F069FE76
:101D30003946304614F080FD3844844208D2394692
:101D40003046224614F0CEFD2146304614F059FEAE
:101D500001223946304614F075FDA5E7BDD10200D9
:101D6000F1D00200B2CF0200D8D10200B2F5802F2C
:101D7000F8B507460D46164612D2042A0ED8444935
:101D80004FF4C173434A444814F0C8FC434814F06C
:101D9000C5FC4FF4C1713F4814F065FF042200E018
:101DA0000822B61AEC1D354424F0070425F0070577
:101DB0002D1B172D4FEAD5060ED8394940F28B134B
:101DC000344A354814F0AAFC344814F0A7FC40F219
:101DD0008B11304814F047FF00233C603146E3602C
:101DE0002046A66014F054FD01218500471C2046C2
:101DF00014F044FD1B35ED082844B0420ED32949A8
:101E00004FF4CB73234A244814F088FC234814F081
:101E100085FC4FF4CB711F4814F025FF00231946B1
:101E200004F11002BB422FDB2A462046002114F0A9
:101E300021FD002320461A46194614F0F2FC771BB8
:101E400020460122002114F0FDFC3A46294614F0F8
:101E500011FD2B4629462046002214F0E2FC3146B3
:101E60002046002214F006FD3B4631462046002263
:101E700014F0D7FC31462046012214F0E3FC294639
:101E8000BDE8F84014F0BDBD42F8041B0133C9E7BA
:101E9000F5D10200F1D00200B2CF020016D202004A
:101EA0002FD2020058D202002DE9F04F8B46924605
:101EB0001C46002591B002909AF8000008B9284607
:101EC0005EE325280AF1010707D05946029B98478F
:101ED0000028C0F25583013510E2182200210AA81B
:101EE00016F082FB9AF80130252B78D00022944618
:101EF000164696461046394617F8013B2B2B00F044
:101F00009D8000F29480202B00F09B80232B00F01A
:101F10009A8028B19DF8300040F004008DF8300020
:101F2000BEF1000F05D09DF8300040F008008DF89C
:101F300030002EB19DF8300040F010008DF83000D8
:101F4000BCF1000F05D09DF8300040F020008DF866
:101F500030002AB19DF8302042F040028DF8302048
:101F60009DF8302002F04400442803D16FF386121C
:101F70008DF830209DF830202A2B42F080028DF819
:101F800030207BD19DF831204B1C42F001028DF8AE
:101F900031201A782E2A0CBF012100219DF8312012
:101FA00061F341028DF8312074D15A782A2A6AD01F
:101FB00000210A260133184610F8012BA2F1300740
:101FC000092F40F28E809DF830200E91C2F3400020
:101FD00040EAD17161F341028DF830205AE00AF1F4
:101FE00002078DF833309DF83130D90740F149812F
:101FF00054F8049BB9F1000F07DA9DF83020C9F1BD
:10200000000942F004028DF830205A0740F1428165
:1020100054F8048BB8F1000F80F241819DF8313003
:102020006FF341038DF831304FF0FF3837E12D2B3E
:102030000CD0302B7FF46DAF01225CE74FF0010E26
:1020400059E7012657E74FF0010C54E7012052E70A
:1020500033460CFB0202303A1E4616F8010BA0F183
:102060003007092FF4D9994293D09DF830100D9282
:10207000D20F62F341018DF830108AE70B4600223F
:102080004FF00A0CE8E79DF83120023342F00402D9
:102090008DF831201F4617F8012B6C2A41D025D826
:1020A000682A2BD06A2A46D04C2A4CD01F4617F8F3
:1020B000012B9DF83130782A8DF8332000F2D98039
:1020C000572A4DD8412A03D0453A022A00F2D1803E
:1020D00004229DF8323062F302038DF8323001237E
:1020E0009EE006FB01210346303964E7742A26D0BE
:1020F0007A2ADBD106229DF831300DE05A78682A21
:102100009DF8312006D1012161F3C6028DF83120FE
:102110009F1CCCE71346022262F3C6038DF83130D0
:10212000C5E75A786C2A9DF8312001D10421EBE7EC
:1021300013460322F0E705229DF83130ECE7072231
:102140009DF83130E8E7BDF8303023F4F04323F058
:10215000020343F4804343F00203ADF83030A6E7B6
:10216000A2F15801202900F2848001A050F821F04A
:102170003522010073220100732201007322010045
:1021800073220100732201007322010073220100F7
:1021900073220100D12001007322010035220100C9
:1021A000F5210100D1200100D1200100D120010042
:1021B00073220100F5210100732201007322010046
:1021C00073220100732201003D220100352201002B
:1021D00059220100732201007322010059220100DB
:1021E00073220100352201007322010073220100D5
:1021F0003522010001209DF8321003F0780360F3CE
:102200000201402B8DF8321002BF9DF8301041F0D2
:1022100001018DF83010632A31D1003B18BF012332
:102220009DF83020C2F340010B4363F341028DF867
:102230003020D8E602209DF83210DEE703219DF819
:10224000322003F07803A3F1400061F3020243421D
:102250008DF832204341E3E703219DF8322013F04B
:10226000780F61F3020214BF012300238DF832209E
:10227000D6E79DF8303043F001038DF8303000236D
:10228000CEE79DF93020002AACBF4FF0FF39DDF8D2
:102290003490BAE69B077FF5C7AEDDF8388000239F
:1022A000CDE90D339DF832309DF8312003F007035E
:1022B000012BC2F3C30236D1D31E042B20D8DFE892
:1022C00003F00307071F1F0054F8040BC11704E0B5
:1022D000073424F00704F4E80201CDE90A019DF86F
:1022E000303013F0030654D03B465246594602980C
:1022F00014F0A3FC0028C0F243810544BA46DBE594
:1023000054F8040B012A4FEAE071CDE90A0105D126
:102310009DF828300A9300230B93E0E7022ADED1D0
:10232000BDF92800D2E7022B23D1D31E042B13D8EA
:10233000DFE803F0030A0A12120000212068231DBF
:102340000A900B911C46CAE7073424F00703F3E810
:102350000201CDE90A01F5E754F8043B012A0A938A
:102360004FF000030B93D3D0022AB8D1BDF8283028
:10237000D0E7042B07D1073424F00704F4E8020166
:10238000CDE90A01ABE7032B04BF54F8043B0A93E1
:10239000A5E79DF833007828B0D8622822D82528F0
:1023A0003FF493AD5828A9D1DDE90A010DF12603C8
:1023B00000930CAA04AB14F0F5FB8246B8F1000FB1
:1023C0000DF126000CDB9DF83020A0EB0A036FF323
:1023D000861298458DF8302002D9A8EB03030D939F
:1023E00080463DE06338152888D801A151F820F0D7
:1023F00071240100D5240100FD220100FD2201000D
:10240000FD220100FD220100D5240100FD22010072
:10241000FD220100FD220100FD2201003325010003
:102420000125010005250100FD220100FD2201001A
:1024300049240100FD22010001250100FD220100C7
:10244000FD22010001250100B8F1000FDDF828A0F0
:102450000ADB4146504616F068F800260AEB0008F1
:10246000BAF1000F0CD149E7504616F057F8F4E7DF
:1024700000260A9B0DF111088DF810300DF1100A9D
:10248000A8EB0A0306B101339DF83220D0066BD5C4
:10249000023352060D9948BF0E9A0B4448BF9B1851
:1024A000B9F1000F79DD9DF83020A9EB0309C2F3E3
:1024B00080030393530770D4500664D546B1594640
:1024C0003046029B984700285ADB039B01351E4685
:1024D000302359E01E0711D413F0100618BF202630
:1024E000DDE90A23002A73F10001BFF65DAF524215
:1024F00063EB43032D26CDE90A2355E72B26EFE7AF
:10250000002651E70A9848B30DF1260300930021F5
:1025100004AB0CAA14F046FBBDF83230824603F03F
:10252000EF0343F4F04343F010030026ADF83230DC
:1025300044E70A9B072A3FF6E1AEDFE802F00D040C
:10254000060D08080D0D1D70D8E61D80D6E628463C
:10255000E917C3E90001D1E61D60CFE6DFF8C480CA
:102560000646A8F1050A8BE7110748BF013390E73B
:10257000184603935946029B98470028039B04DAA8
:1025800011B0BDE8F08F20234D444A46002AA5EB48
:10259000090109F1FF39EBDC0D4636B159463046E9
:1025A000029B98470028EBDB01359DF83230D906B5
:1025B00001D41A0706D559463020029B98470028B7
:1025C000DEDB01359DF83230DB0607D559469DF834
:1025D0003300029B98470028D2DB01350D9E2E4424
:1025E000731B002B16DC434652465946029814F0E2
:1025F00024FB0028C4DB0544A944A9EB0503002BF8
:102600007FF77CAE59462020029B98470028B7DB15
:102610000135F2E759463020029B98470028AFDB8E
:102620000135DDE787D2020048B1054B1A68054B3A
:10263000B2FBF3F2044B504343F0010318477047D9
:102640003083002040420F0060C2020030B50022FB
:1026500089B00F490F4819F08AFA0022002300249C
:10266000CDE906230E230C4DCDE903344FF440721F
:102670002846CDE90144094B0949009410F0CEFAEF
:102680000849284619F06CF9204609B030BD00BF52
:10269000A92601005087002088870020892B01008F
:1026A00030A900208CD20200014810F0F7BE00BF14
:1026B000508500202029F8B505460C4609D9144953
:1026C00014488023144A14F029F88021124814F089
:1026D000CAFA002001270346024615F8011B09B17A
:1026E000A34200D3F8BD252902D182F00102F4E70C
:1026F000002AF2D041F02006613E192EEDD8732950
:1027000004BF07FA03F2104301330022E5E700BFDC
:10271000C1D20200B2CF020094D20200002210B552
:102720000A4B4FF400401A70094B0A4A1A6000F035
:1027300099FD00F0A3FA084814F0D4FABDE810405F
:10274000082348220549064819F0E8B826A40020C5
:10275000A0810020296D02008092002060D7002017
:102760008892002010B54FF02003EFF3118483F31B
:102770001188BFF36F8F044814F0C4FA84F31188F2
:10278000BFF36F8F10BD00BF80920020044BD3E8D1
:10279000EF2F0132C3E8E12F0029F8D1704700BFC5
:1027A0007892002000200246034BD3E8EF0FC3E8E5
:1027B000E12F0029F9D1704778920020F8B5FFF792
:1027C000F1FF002607460A4C0A4D2D1B2D11AE4283
:1027D00000DBF8BD204614F09BFA28B123681B6982
:1027E00013B139462046984701361034EFE700BF51
:1027F00004C1020014C10200044A054B9B1AB1EB4C
:10280000D30F34BF52F8310000207047E4BF0200FC
:1028100004C1020070B5104C0546041B241101349C
:102820000E46E4B248B90D490D48D1230D4A13F0C4
:1028300075FFD1210B4814F016FA01226B681C7148
:10284000094C5A7122781E6012B9084810F026FE11
:102850000123237070BD00BF04C102000AD302002F
:10286000B2CF0200D9D2020025A40020508500205A
:10287000184B194A70B59B1A9F2B4FEA23160BD998
:102880001649174840F24D23164A13F047FF40F20D
:102890004D21144814F0E7F9134BD3E8EF5F6A1C9D
:1028A000C3E8E12F0029F8D115B90B4CB54200DB84
:1028B00070BD237B53B123689B690BB120469847B9
:1028C0006368042220461968FFF7A4FF013510341D
:1028D000ECE700BF14C1020004C1020021D30200D2
:1028E000B2CF020094D202007C920020144B37B584
:1028F0009842044602D3134B98421CD30022002373
:10290000114801A910F05AF80546B8B90122019BF7
:10291000D3E8EF1FC3E8E02F0028F9D10198214642
:102920004122043015F0E7FD7E23019C84F84530F8
:1029300084F846500434204603B030BD034CFAE717
:1029400068BC0200181903008892002045D30200D9
:1029500050B1064B984206D303F5107398422CBF32
:102960000020012070470020704700BF60D7002082
:10297000464B2DE9F74F1B78044603B9E0B1FFF74A
:10298000F1FE054658B1424BD3E8EF2F013AC3E8B8
:10299000E12F0029F8D19CB1284614F0ABFA2CB9EC
:1029A0003C4B1B68002B01DDFFF708FF3A4814F091
:1029B000A7F9041E18BF0124204603B0BDE8F08F1C
:1029C000364B1B78B3B92B7ADB0713D414F0A1FA7A
:1029D0008146284614F06CFA01464846FFF76AFE25
:1029E00007462F4A2F4BDFF8E0A09B1A4FEAD30B84
:1029F000019237B92C4E2D4F4FF00008BF1B3F11ED
:102A000041E0B7FA87F8C8F11F084146284614F09C
:102A100052FA274B0246984202D3264B984220D3C3
:102A20001046FFF795FF0646D8B9234B9A4218D0B7
:102A30006B892249C3F389135B4538BF019A20484B
:102A400038BF52F83360D023524613F067FE414638
:102A50001C484B46324613F061FED021504614F01C
:102A600002F9012303FA08F827EA0807C1E730460C
:102A700014F04EF920B13368294630465B68984718
:102A800008F101081036B845F1DB85E725A40020E0
:102A900074920020789200208092002026A40020CA
:102AA000E4BF020004C1020004C1020014C102001C
:102AB00068BC02001819030045D30200E4DE0200DE
:102AC000B2CF02005FD3020094D20200274B37B589
:102AD0001B68418104469847E0604FF02003EFF304
:102AE000118583F31188BFF36F8F2148214614F0BD
:102AF000FDF885F31188BFF36F8F1E4BD3E8EF2FDE
:102B00000132C3E8E12F0029F8D11B4A127882B1C3
:102B10004FF02003EFF3118483F31188BFF36F8F1D
:102B20000020FFF725FF84F31188BFF36F8F03B0F8
:102B300030BD124A1B681268002AF8D0012B0AD156
:102B4000002200230E48CDE900234FF40042002369
:102B500013F036F8EBE70A2BE9D1094819F013F81E
:102B6000084803B0BDE8304010F098BCA0810020B8
:102B7000809200207492002026A40020A8920020B9
:102B80005087002050850020164B174A10B59B1A1D
:102B9000002B0BDC1549164840F26D53154A13F013
:102BA000BDFD40F26D51134814F05DF8FFF760FE73
:102BB00012F06CFB104B186030B1104B1B68092BE6
:102BC00002DD0F4810F06AFC0D4C0020FFF7D0FE2C
:102BD0000028FAD14FF0FF324FF0FF33204610F0BB
:102BE000A1FCF2E714C1020004C10200A0D302005C
:102BF000B2CF020094D20200A8920020749200206A
:102C000050850020F8B50F4F3D7875B9FFF730FEBD
:102C10000D4C0E4E361B3611B54207DB0020FFF778
:102C2000A7FE0028FAD101233B70F8BD204614F01E
:102C30006FF818B1236820465B6998470135103456
:102C4000EAE700BF26A4002004C1020014C102006C
:102C500007B504380190D0E8EF3F5A1EC0E8E12FD5
:102C60000029F8D1012B03D1034801A90FF012FF6D
:102C700003B05DF804FB00BF8892002020230249C6
:102C80001A46024818F04ABEA0D90020AC92002093
:102C9000002337B5094D01930120FFF769FE044673
:102CA000FFF774FD00220023284601A90FF086FEDD
:102CB00008B1002CF0D1019803B030BDAC920020D7
:102CC000002307B5002201930648002301A90FF055
:102CD00075FE10B1FFF7DCFF0190019803B05DF8BD
:102CE00004FB00BFAC920020F0B5037A457A85B0B2
:102CF0000190D8074FEA15151CD4DDB100242646F3
:102D00003146019814F0D7F80746FFF721FE70B15D
:102D100034B9019B29461869FFF7CCFC044648B139
:102D200024FA06F3D90702D53846FFF791FF01369A
:102D3000AE42E5D3019B1A7A920704D55B69084C31
:102D40000393039B2BB9064801A90FF0A3FE05B01E
:102D5000F0BD1D68204603A90FF09CFE0395F0E727
:102D6000AC9200200E2A2DE9F84F81468846154680
:102D70000BD92D492D4840F237132D4A13F0CEFCC4
:102D800040F237112A4813F06EFFFFF799FF04460F
:102D900030B301230027032D4360078109D90222A4
:102DA000A5F1020A028100F1140B4761BAF1000F8C
:102DB0000EDC637A032D65F30713C4F81090637279
:102DC00018D84146AA0004F1140015F0E2FB07E010
:102DD000FFF776FF064630B92046FFF785FF3446F9
:102DE0002046BDE8F88FCBF80000AAF1070A834619
:102DF0000760DBE74146082204F11800676915F017
:102E0000C8FB023D08F10808072D2E4628BF0726FB
:102E10004FEA86094146381D4A4615F0BAFBAD1BFC
:102E20003F68C844F0D1DBE7ECD30200B2CF020028
:102E3000C0D302000EB403B503AB53F8042B014614
:102E400004480193FFF730F802B05DF804EB03B0DB
:102E5000704700BF913001002DE9F04F11F00206DC
:102E600087B0059207461A469DF84080BDF9489004
:102E700001F0010A01F0080506D011F0440F38D125
:102E80003249FFF7D7FF0646BAF1000F0AD0304BA0
:102E9000384653F828202F4B2F49002A08BF1A46DE
:102EA000FFF7C8FF3DB12D4B384653F828202C4979
:102EB000FFF7C0FF0546B9F1000F16DB059B002B9D
:102EC00041D0012303FA08F8264B18F0100F264CC6
:102ED00018BF1C4649469DF84400FFF78DFC21466B
:102EE00002463846FFF7A6FF0544A81907B0BDE81B
:102EF000F08F1E4B196821B31D4B4FF4616C1B689A
:102F00004FF47A76B2FBF3F3B3FBF1F4B4FBFCF2CB
:102F10000CFB124C01FB14347443B4FBF1FB4FF077
:102F20003C0E01FB1B447443BCFBFEF3B4FBF1F10C
:102F3000CDE901B10EFB13C100910E49FFF77AFFF5
:102F4000A1E708469FE7084CC4E700BF05D402008C
:102F500078C20200F7D3020001CD02008CC2020049
:102F60002AD4020001D40200FCD30200CC9200203B
:102F7000D09200200ED4020038B50C46E107054679
:102F800003D5084A0849FFF755FFE20608D4A3060F
:102F90002846BDE838404CBF04490549FFF74ABF01
:102FA00038BD00BFF7D3020001CD020026070300A1
:102FB000C00B03002DE9F0471D46089B1746DA06B3
:102FC00004460E4605D499064CBF2A492A49FFF704
:102FD00031FF4FF00008DFF8A890A8452ADB002554
:102FE000DFF8A080DFF8A090DFF894A0BD422FD2D8
:102FF00049462046725DFFF71DFF0135102D20D197
:1030000020461E49FFF716FF0025DFF87480DFF821
:103010007C90AF4228D9725D4946A2F120035F2B14
:1030200028BF2E222046FFF705FF0135102D14D1B1
:10303000BDE8F08749462046FFF7FCFE08F101088D
:10304000CBE76A07D2D151462046FFF7F3FECDE722
:1030500041462046FFF7EEFECFE76B07D9D1414648
:103060002046FFF7E7FED4E741462046FFF7E2FEA1
:10307000DBE700BF26070300C00B030036D40200C5
:103080005D0E03005B0E030030D4020038D4020052
:1030900038B54B6805461A68CB680C469A4202D18F
:1030A000084614F0A9F86368D3E8EF2F511CC3E871
:1030B000E01F0028F8D1A3689D5463681A68E3688C
:1030C0009A4209D9054906487323064A13F026FB9C
:1030D0007321044813F0C7FD002038BD6AD40200F4
:1030E000B2CF02003BD402002DE9F0478B7A16469E
:1030F00013F0070704460D460A7A8AB020D0D2435F
:103100004989C3F3C203C1F38911CDE90073029168
:10311000EB68314602F00102FFF79EFE81462B7AF2
:10312000DB4313F001080DD02146284613F007FFBA
:10313000002F3CD03A4631462046FFF71DFF36E0CF
:10314000B946ECE7002F38D1E3685BB92A492B4830
:1031500040F2CF132A4A13F0E1FA40F2CF11284887
:1031600013F081FD0026E36806AA0693284633463D
:10317000A16813F0D0FE069A63681A604AB1A3688A
:10318000134413F8018CA8F10A03D3F1000848EBAB
:103190000308204614F030F8069B1E44002BE2D1B1
:1031A000B8F1000F03D020461649FFF743FE204632
:1031B00014F022F80AB0BDE8F087284613F0A9FE03
:1031C000114902462046FFF735FE4FF0100A05AAC6
:1031D0004346284606A9CDF814A013F09CFE059A94
:1031E000002AA7D04B462046009606A9FFF7E2FE2C
:1031F000059B9844EBE700BF9AD40200B2CF0200CF
:103200003BD40200A7D4020001CD020042F20F73AA
:1032100073B58B4228BF0B460568044605216846F6
:103220000D4A13F088FA0646636828460B225B684D
:103230000A4913F077FE63683246694628465B68A0
:1032400013F070FE63681B2228465B68044913F084
:1032500069FE02B070BD00BF81CD0200E5D402005E
:10326000C9D4020001230021074A10B5074C13609E
:10327000A04204D801B11360054B186010BD0121B4
:1032800040085B00F4E700BFD092002040420F00EE
:10329000CC9200200122014B1A70704737A4002005
:1032A0000122024B02481A7013F0A6BF38A4002076
:1032B000BCC202000148FFF7A9BF00BFBCC20200A8
:1032C00010B50C46084613F0EAFD214604480F22CB
:1032D000FFF70AFF2046BDE8104013F00BBE00BF09
:1032E000BCC20200054B1B781BB141F2883018F0BC
:1032F00011BCA420002111F091BF00BF38A4002010
:103300002DE9F84FDFF8949080460F460424CB4611
:10331000DFF88CA099F80050CDB94FF0FF334FF093
:10332000FF3250460FF092FD3A46414628460FF0D4
:103330000FF8064650460FF083FE174DFEB10123ED
:103340002B709BF800306BB93846BDE8F88F3A46D1
:10335000414600200EF0FCFF0646EEE75CB92C70FB
:103360004FF0FF3400200FF03FF80028ECD02B780E
:10337000002BF3D1E8E7013CFFF7B4FFF2E72B782D
:1033800013B1013C04D12C702B78002BC2D1DBE7A8
:10339000FFF7A8FFF8E700BF37A4002038A40020FB
:1033A000148500202DE9F7430F4606460821C06A20
:1033B00013F0EBFF134B804699463C68241A3C609F
:1033C00004EA0305AC4203D8002003B0BDE8F08353
:1033D00008236A462146304613F03AFF0028F4D10C
:1033E0006946304613F0DBFF40B1BDF80230BDF84E
:1033F000042005EA090513441D443C60A4EB0804BD
:10340000E0E700BF0000FFFF2DE9F04F082195B075
:103410000546C06A13F0B9FF80466B68E8891B0C4B
:103420001B0403A9039313F0D4FF039BA98906AEE1
:103430001944A1EB0801082332462846049113F0F1
:1034400007FF041EC0F29C80EB6A1A790023F15C2E
:10345000914240F083800133082BF8D1284603992C
:1034600013F053FF04468BE0049BBDF81A201B0C9D
:103470001B0413440493DFF810B1284608AA04A9DA
:10348000DDF810A014F014F80446002878D128467E
:1034900008A913F084FF002836D06B6805932846EE
:1034A0000AAA05A9059E14F003F80446002867D16E
:1034B000BDF82820BDF820309A4228D06A68059BC4
:1034C0009A42ECD156451FD1BDF82430E3B1BDF886
:1034D00022300AEA0B071F44AB6808A8ADF8223077
:1034E00013F04AFFEB6ABDF824901E68764206F09E
:1034F00020030193B9F1000F10D1284608A913F059
:10350000C6FF044600283BD1C245B6D1A6E72846EF
:103510000AA913F044FF0028D0D0D3E7019B394615
:103520004B4528BF4B4628460CAA1E4613F090FE7A
:10353000044628BB36B133462846A9680CAA13F0C6
:1035400071FF04463146E86A13F01FFFAA6802447F
:10355000AA60ACB9A9EB06093744CBE70498314619
:10356000A0EB0808284613F03FFF00287FF47CAF4B
:10357000284604A9FFF716FF044600283FF47BAF56
:10358000204615B0BDE8F08F0000FFFF2DE9F047A1
:1035900004460D4686B000F11406304618F0EEF9E8
:1035A00028460EF04BFFA06278B9AC4BAC49AD4851
:1035B000C91AC908890141F0010113F0B9FB6FF084
:1035C0000505284606B0BDE8F08783681B69984763
:1035D000E06260B9A249A14BA348C91AC908890190
:1035E00041F0010113F0A4FB6FF01505E9E7A06AB3
:1035F00083681B6998470368013B1F2B08D99849CA
:10360000964B9A48C91AC908890141F00101E9E7B6
:10361000A06A216803AA17F047F940B190498F4B7F
:103620009348C91AC908890141F00101DAE7A38961
:103630002BB1049AB3FBF2F502FB153545B188496D
:10364000864B8C48C91AC908890141F00101C9E7B4
:10365000E389012B08D88249804B8748C91AC908D9
:10366000890141F00101BDE7E36A009593F80490F8
:103670004FF0FF324FF0FF3330460FF0E7FB0821E9
:10368000E06A13F082FE2F468046E3891FFA85FA2E
:10369000534565D8E389BB4200F0C38053450CD144
:1036A000009908234A462046A1EB080113F008FEC2
:1036B00018B96946E08913F08CFE69462046FFF789
:1036C00071FE054640BB009B6C4F63603B40A360AE
:1036D000D4E9011399420FD30823204601AA13F01D
:1036E000B7FD0546C0B901AB13F8012B914540F079
:1036F0009B800135082DF7D16368604F69463B40D8
:10370000E089009313F065FE4A462046A38900999C
:1037100013F0D6FD051E46DA30460FF091FC002D61
:103720007FF44FAF01234E4E23744C4BA289F61AFF
:10373000F608B60146F003063346E189504813F017
:1037400018FB616833468AB24E48090C13F011FB2E
:10375000A16833468AB24C48090C13F00AFB30E7E3
:10376000A1892B04A1EB080113FA81F14A46082331
:103770002046009113F0A4FD70B16946E08913F072
:1037800028FE013708234A4620460099BFB213F0AD
:1037900097FD00283FF47EAF013576E7002D58D025
:1037A0006FF01C05B8E721D02046616813F0ADFD2D
:1037B00005460028B0D16368A0893B400344A3EBD1
:1037C000480060603840A0602046FFF71DFE0546B7
:1037D000A2E74A4620465B1A13F072FD051E9BDBEA
:1037E00008D0E26AA36812681344A360D4E90131E7
:1037F0008B42EED86168A38901EB480098428BD1D7
:103800001E4FA26801EA07039A4285D0204613F0B2
:103810007CFD054600287FF47FAF63683B40A360D2
:103820007AE76FF02C0577E7204601A913F0B7FD82
:10383000626870B1009BBDF80850BDF806103B40AF
:10384000A360E06A294413F0A0FD03449342A360FF
:10385000A4D0A2EB080262603AE700BFE4BF020016
:103860008CC0020015D5020031D5020053D50200EC
:1038700070D5020088D502009CD502000000FFFF31
:10388000BFD50200D6D50200E8D502002DE9F04FE1
:103890001E46037C04468946904689B07BB9694B35
:1038A00069496A48C91AC908890141F0010113F040
:1038B0003FFA6FF00C05284609B0BDE8F08FC36AE7
:1038C0000821184613F061FD82463146184613F070
:1038D0005CFDA3890AEB4A029B1A9E42074600F24E
:1038E000AC801EB1B8F1000F00F0A78063680393AD
:1038F000204604AA03A9DDF80CB013F0D9FD054653
:103900000028D8D1BDF810304B4505D06268039B24
:103910009A42EDD1E6B9CEE7204604A913F03FFD67
:103920000028F3D0BDF8143086B19E4210D1BDF806
:1039300012004FEA1B410904014433464246204627
:1039400013F094FC002803DC0546B4E7002BB2D04A
:10395000002F3FD104F1140A4FF0FF324FF0FF3334
:1039600050460FF073FA0022DFF8E4B0E3899A4280
:1039700060D0D4E90131781883422ED3FF2306A802
:10398000ADF81890ADF81A10ADF81C608DF81E3027
:1039900013F0F2FC36B1334642462046A16813F0DC
:1039A00041FD05463146E06A13F0EFFCA36803448D
:1039B000A360002D44D1204606A913F068FD0546FA
:1039C00000283DD13346019350460FF039FB019B4F
:1039D0001D4670E75744BFB2BCE70821E06A019278
:1039E00013F0D3FC4FF6FF71ADF818100021ADF8BD
:1039F0001C101918ADF81A10A18903EA0B030B4427
:103A0000181A606006A813F0B7FC06A9204613F048
:103A10003EFDE089211D13F0DCFC6368204603EACB
:103A20000B03A360FFF7F0FC03460028CBD1019AFB
:103A300001329BE76FF01B03C5E76FF015053AE70E
:103A40002B46C0E7E4BF02008CC0020001D5020093
:103A50000000FFFF2DE9FF471E46037C04460F468A
:103A60009046BDF8309073B92B4B2C492C48C91A9D
:103A7000C908890141F0010113F05AF96FF00C00F7
:103A800004B0BDE8F0870821C06A13F07EFCA3896A
:103A9000A3EB40039E423CD84FF0000A63680193B9
:103AA000204602AA01A9019D13F002FD0028E7D1DA
:103AB000BDF80830BB4208D1204602A913F06FFCC4
:103AC00018B10AF1010A1FFA8AFA6268019B9A4248
:103AD00018D0D145E4D2BDF80C30BBB1D14515D8D2
:103AE000BDF80A102D0CB3424FEA054528BF3346F6
:103AF00042462046294413F0ABFB0028C0D1BDF854
:103B00000C00BDE7BDF80830BB42E4D06FF0010007
:103B1000B6E76FF01500B3E7E4BF02008CC0020007
:103B200001D50200014B1970704700BF000007204B
:103B30000020014B1870704700000720014902481F
:103B40000FF0A8BFEC92002008880020014B1868F5
:103B500017F01ABDFC9200200D4B13B51868002316
:103B600082680093194614681A46A047014660B15E
:103B7000084B094A0948D21AD208920142F00102C0
:103B800002B0BDE8104013F0E0B802B010BD00BFB5
:103B9000E8920020E4BF0200DCC0020000D6020070
:103BA0002DE9F041684B86B0049306238DF814305C
:103BB0000023074600930D464FF0FF334FF4006299
:103BC000624963480FF0D0FF6249614817F0C8FEB0
:103BD000614962480FF036FF04A80EF023F804464E
:103BE00070B15F4A5F4B0146D21AD20892015E481B
:103BF00042F0010213F0A9F8204606B0BDE8F081BA
:103C00005A480DF0EFFF044648B1554A554B01465E
:103C1000D21AD2089201564842F00102EAE7554909
:103C2000554803AA17F036FA044648B14C4A4D4BA2
:103C30000146D21AD2089201504842F00102D9E757
:103C4000039B9A685AB93860464B45494C48C91A93
:103C5000C908890141F0010113F06AF8CCE70C337F
:103C60003B60002BF0D047480EF0E8FB464E30603A
:103C700046480EF0E3FB326862B93949394B444893
:103C8000C91AC908890141F0010113F051F86FF018
:103C90001204B1E740B93249324B3E48C91AC9084B
:103CA000890141F00101F0E7836822465B683A49E7
:103CB0009847B42017F0CEFF064618B1B42221462B
:103CC00014F092FC354B98461E6066B92449254B8A
:103CD0003348C91AC908890141F0010113F028F8D5
:103CE0006FF00B0488E7B42017F0B4FF064618B154
:103CF000B422002114F078FCC8F8046046B91849D1
:103D0000184B2848C91AC908890141F00101E5E7A3
:103D10003A68254BD8F800005A61244A10215A60AD
:103D2000042218609A6038681A620022D86220481B
:103D30009984D8619E61AA610222AA621D4A998172
:103D40002A62EB6258E700BF751C020030AC00200D
:103D5000088800201ED602004D3B0100EC92002096
:103D6000DCC00200E4BF020029D60200D48100209A
:103D70004CD6020077D6020081D6020089D6020016
:103D8000A6D60200DA080300E8920020D2D602008C
:103D9000D8D60200FBD602003D3B0100FC92002079
:103DA0001ED7020047D70200A481002000FC072094
:103DB00000F80720CCC202002DE9FF410D46264C39
:103DC000064621682846174614F0B8FBA046B8B14D
:103DD0002846E16C14F0B2FB88B1204A204C2846FA
:103DE000A41AFEF783FDE408A40144F0010401468F
:103DF00022461C4804B0BDE8F04112F0A6BF0120E5
:103E00004C244443184B04F1080002934444636873
:103E10003146CDE900732A464FF0FF3340440DF0A0
:103E2000C5FF064690B10D4B0D4C2846E41AFEF72F
:103E30005DFDE408A40144F0010401462346324636
:103E40000A4804B0BDE8F04112F093BF012384F8A2
:103E5000483004B0BDE8F08104930020E4BF0200C4
:103E6000E4C002007ED7020069750200A8D70200F4
:103E700037B5194D19492846FFF792FE044668B137
:103E8000174A184B0146D21AD2089201164842F03E
:103E9000010212F05AFF204603B030BD134C4FF41C
:103EA0007C422046124917F01BFD00942B68114AF2
:103EB0000A4911480EF020F9044648B1084A094B56
:103EC0000146D21AD20892010C4842F00102E0E702
:103ED00001220B4B1A70DEE79C930020A88800207B
:103EE000E4C00200E4BF0200D9D7020040940020E1
:103EF00000040720B93D0100A093002001D8020072
:103F000039A4002038B5134B02461B78FBB9124C7C
:103F10002368254693B1E36CBBB1104A104CA41A38
:103F2000FEF7E4FCE408A40144F001040146224643
:103F30000C4812F00AFF6FF00B0038BD18464C23F6
:103F40004343EC18EA506160F7E70120F7E76FF0B0
:103F50007600F2E739A4002004930020E4BF0200B9
:103F6000E4C002001BD802004C22034B02FB0030CD
:103F700090F84800704700BF0493002037B54C24E8
:103F80000B4601214443CDE90021054D2819083491
:103F9000D0E90B1228190DF0F7FE03B030BD00BFB9
:103FA00004930020094B30B51D68094B02461C687C
:103FB00000239D4201DC002030BD1901615C04EB4F
:103FC00003109142F8D00133F3E700BF84C302002D
:103FD0004C820020084B10B51B680C462BB1FFF734
:103FE000E1FF28B12060002010BD6FF00C00FBE75E
:103FF0006FF00100F8E700BF4C82002030B589B0B7
:104000000C4615460190FFF7CDFFB8B14368226812
:1040100002938368C068CDE903350023CDE9062308
:10402000059313F0A3FA60B1074901AA16F040FC0A
:10403000079808B9059B236009B030BD6FF01500E3
:10404000FAE76FF01200F7E771750200104B2DE9E7
:10405000F0411C6805460E461746ACB14FF0FF32E2
:104060004FF0FF330B480EF0F1FE63683246D3F891
:10407000088029463B462046C047044605480EF0C6
:10408000DFFF2046BDE8F0816FF00104F9E700BFD3
:10409000549400203C85002000230360044B5A68A0
:1040A00012B9C3E90000704710605860704700BF44
:1040B0004C940020014B1860704700BF54940020BE
:1040C000002330B585B00546CDE9023301904FF0AD
:1040D000FF334FF0FF320D480EF0B8FE0C4B1C685A
:1040E000002C38BF00243CB1636820461B6801A93E
:1040F00098472468002CF6D1284600F0F1F80446D1
:1041000002480EF09DFF204605B030BD3C850020E2
:104110004C9400201FB5CDE9010103924FF0FF330D
:104120004FF0FF320B480EF091FE0B4B1C68002C39
:1041300038BF00243CB1636820461B6801A998473A
:104140002468002CF6D103480EF07AFF002004B05A
:1041500010BD00BF3C8500204C9400200022024B83
:10416000C3E90022704700BF4C9400200022024B9C
:10417000C3E90022FFF7F2BF589400202DE9F3476E
:1041800007460E4609B100230B60DFF8B08000251A
:10419000C246254CDFF8A89044450CD92349942306
:1041A0004A46234812F0BAFA224812F0B7FA94218C
:1041B000484612F058FD544508D31F4B1C680CB1FB
:1041C000143CC4B9284602B0BDE8F08738462168DF
:1041D00001AA13F0F2F960B125B90EB1019B336069
:1041E000254606E000222968206813F0E6F9002839
:1041F000F3D11434D0E73846216801AA13F0DDF971
:1042000060B125B90EB1019B3360254606E000225E
:104210002968206813F0D1F90028F3D114F1140FA4
:10422000D0D06469CBE700BF6CBF020081D8020028
:10423000B2CF0200A9D8020058940020E4BF0200C7
:104240004FD802002DE9F04385B0DDF830800546F7
:104250000C4616461F460390B8F1000F18D0D8F848
:10426000001081B103AA13F0A8F960B9002007E09B
:10427000D8F808303246009321463B460398C84799
:1042800005B0BDE8F083D8F80490B9F1000FEFD184
:10429000284603A9FFF772FF0028E7D03246D0F87E
:1042A00008803B4621460398C04706460028DDD0DB
:1042B000084B094C2846E41AFEF718FBE408A40151
:1042C00044F00104014623463246044812F051FDF1
:1042D000CCE700BFE4BF0200ECC00200C8D8020077
:1042E0002DE9F843234F06460025B946224CDFF856
:1042F0009C80BC420CD92149F4234246204812F04C
:104300000DFA204812F00AFAF421404612F0ABFCF4
:104310004C4507D31C4B1C680CB1143CA4B928466F
:10432000BDE8F8831EB9E3684BB91434E1E7002215
:104330003146206813F041F90028F4D1F5E7984799
:10434000002D08BF0546F0E736B9E36863B914F1FC
:10435000140FE4D06469DFE700223146206813F0CF
:104360002CF90028F1D1F2E79847002D08BF054647
:10437000EDE700BFE4BF02006CBF020081D802007D
:10438000B2CF0200A9D80200589400204FD80200F2
:1043900010B5064C23783BB9FFF7E8FE00F064F84F
:1043A00008B90123237010BD0020FCE73AA40020C7
:1043B0002DE9F04780468946048FDFF8A8A0013434
:1043C00098B0A4B200F10806651EADB2B5F5004F75
:1043D00045D04A23294605AA304613F0B9F804F51A
:1043E0007F543F34A4B207462146012330460DF1E5
:1043F0000B0213F0ADF8002F014603DC002803DCAC
:104400002C46E1E7002816DCB8F83830AB4209D179
:1044100042466B1E22F8383F4FF4004102233046DB
:10442000FFF734FA2946304613F08EF8214630461D
:1044300013F08AF8E4E718AB1F440023524607F84C
:104440004C3C05A8CDF8009003AB0396ADF81040A6
:10445000FFF7F8FE0028D3D018B0BDE8F0870020A1
:10446000FAE700BF2D7602007FB5012369460220DE
:104470000193FFF7AFFD0446002836D1022002AABF
:1044800001A9FFF7BBFD10F1130F04462DD038B181
:104490000C3405D0404080F311884FF0040002DF57
:1044A0000399B1F5803F23D200231846009A9568FE
:1044B000084485429CB203D30133082BF8D11C4633
:1044C0000D4D53682846AB60D368EC82A982EB633C
:1044D00013F043F9044640B9084E28466E60FFF7D2
:1044E000DBFD28466E60FFF7E5FD204604B070BD99
:1044F0006FF02004F9E700BF609400202C820020B8
:10450000F8B505464FF02003EFF3118683F31188C9
:10451000BFF36F8F1E480EF05FFC68B981231D4A00
:104520001D491E4812F0FAF819491D4812F0F6F814
:104530008121184812F097FB15480EF069FC194BC1
:104540001C68002C38BF00245CB1174FD4E901323D
:10455000002D08BF13460BB1387898472468002C0B
:10456000F4D10B480EF046FC68B9AC23094A0F4958
:104570000A4812F0D3F806490D4812F0CFF8AC21E2
:10458000044812F070FB86F31188BFF36F8FF8BDFB
:10459000A094002072D00200C4D00200B2CF02006A
:1045A000D9D00200A4940020AC94002098D002003E
:1045B000AFD00200084B10B51C685CB901221A602C
:1045C000064B93E8070012F082FB2046BDE810403E
:1045D000FFF796BF10BD00BF3C820020AC940020C6
:1045E000F0B585B06E461F4C01460546304613F0C7
:1045F000D0F896E8070084E80700207880B3002010
:10460000194B18606B1C1DD091420CD21749BD2369
:10461000174A184812F082F8174812F07FF8BD21A7
:10462000134812F020FB4FF400460021A7681348FE
:104630000023E6FB0701124AFBF702FE0121281ABC
:1046400011F02CF90FF02AFE0120FFF759FF94E832
:10465000070012F029FBFFF7ADFF10F0B3F8207848
:1046600005B0F0BDAC9400203C82002063D902006C
:10467000EDD80200B2CF0200A3D902003F420F00E2
:1046800040420F0010B507480DF0D8FE064C074B0E
:104690001860204602F042FB2046FCF797FF0020FE
:1046A00010BD00BFEFCD0200B1460100B89400205C
:1046B0000A2838B50446074D04D1286883680D21BF
:1046C000DB69984728688368E1B2DB699847204630
:1046D00038BD00BFB89400202DE9F0410E4C0746CC
:1046E000051BC5F347130C255D4305F188000E46F5
:1046F0002044402113F052F8011E08DB074B2C44E4
:10470000C4E92036064B5B59BDE8F04118473846EE
:104710003346BDE8F0411847D0940020FF770200EF
:1047200004C3020038B5CCB2032C054609D90949A7
:1047300009487E23094A11F0F1FF7E21074812F053
:1047400092FA0C212B6904FB0134D4F8880000F0A4
:10475000070038BD0BDA0200B2CF0200CED902004A
:10476000F8B5CCB2032C0546164607690BD91A4991
:104770001A4840F253131A4A11F0D0FF40F2531175
:10478000174812F070FA4FF02003EFF3118283F311
:104790001188BFF36F8F0C2303FB0471D1F88810CD
:1047A00011F0C00101D08E4212D10121002003FB83
:1047B0000473C3F8881082F31188BFF36F8F30B988
:1047C0000C23696803FB0414636898470020F8BD54
:1047D0004FF0FF30EFE700BF0BDA0200B2CF02006C
:1047E000CED9020070B50D4606490446411A49115A
:1047F00040220548FFF7B4FF2B4601462046BDE89E
:1048000070401847D0940020C48300202DE9F8435D
:10481000002201210646052001F0C8FC052001F018
:10482000A7FC11480CF0F4FD104B984219D10CF084
:1048300013FE00244FF00C080127DFF8349035698F
:10484000494605EB441011F0C4FF002807DB08FBC4
:1048500004550134042CC5F88870F0D10020BDE85F
:10486000F8836FF00400FAE7AD4801000000AD0BDB
:1048700034C3020001460C2300224B43094870B5A3
:10488000C4188833D4E920561844C4F8802012F0A4
:10489000A3FF2DB132462B46BDE8704002481847B1
:1048A00070BD00BFD0940020C483002008B5052847
:1048B00022D8DFE800F0031121130F0D144BD3F8B9
:1048C000880010F0070021D1BDE80840FFF7D2BFF3
:1048D0000220F9E70320F7E70120F5E70D4940F250
:1048E00066230D4A0D4811F019FF40F26621BDE81C
:1048F0000840094812F0B7B9064940F26A23064A4F
:10490000064811F00BFF40F26A21F0E708BD00BF36
:10491000D0940020E4DE0200CED90200B2CF020023
:1049200008B54FF02003EFF3118183F31188BFF333
:104930006F8F114A136843F0020013F001031060F7
:104940000BD00E4AD2F80C34D2F80C2413F0010329
:1049500003D00B4812F040FF012381F31188BFF30D
:104960006F8F23B1BDE808400020FFF783BF01200F
:10497000BDE808400CF096BD809500200050004036
:1049800058950020074BD3E8EF2F22F00201C3E82F
:10499000E01F0028F7D1D30702D401200CF0F8BDA6
:1049A000704700BF809500207FB500220123CDE92C
:1049B000022304ABCDE90433094A6B46CDF800D09D
:1049C000CDF804D012F039FF002805DB4FF4804207
:1049D000002368460EF0A6FD07B05DF804FB00BF9B
:1049E000357802002DE9F843012206464549D1E811
:1049F000EF3FC1E8E02F0028F9D1A3B9424943486D
:104A00004B60CB608A60FDF735F800280BDA40492F
:104A1000404840F22623404A11F080FE40F2262111
:104A20003D4812F020F98EB3731E012B55D8012E8C
:104A300006D13A4BD3F81C3403F00303022B25D0E4
:104A400016F088FF044618B9354B1B78002B52D15D
:104A50004FF02003EFF3118783F31188BFF36F8FBB
:104A600001242E4DDFF8C880A946D5F81834D5F8B2
:104A70001824D2030CD503F00303022B01D0012E1E
:104A800006D134B387F31188BFF36F8FBDE8F88385
:104A9000D4B1384601F000FCD5F81835DBB2012B53
:104AA000E3D1D8F80020002ADFD00022C8F8002087
:104AB000D8F8002002222021C5F81825194AC2F88A
:104AC0008011194A1360D0E70021212010F0A6FBC5
:104AD000E2E70223C9F80433D8E74FF40E73134911
:104AE0000C480D4A11F01AFEBDE8F8434FF40E7160
:104AF000094812F0B8B80222084B0746C3F8082349
:104B0000AFE700BF84950020C0940020F0940020FF
:104B10002FDA0200B2CF0200CED9020000500040CE
:104B20002FA9002000E100E008500040E4DE020070
:104B30000451004010B500F05BF9041E0CDA214668
:104B40000D4A0E4B0E48D21AD208920142F00102D1
:104B500012F0FBF8204610BD0A4803F04DFD041E7C
:104B6000F8DA054A054B2146D21AD20892010648C6
:104B700042F00102ECE700BF24C00200E4BF0200E3
:104B80006DDA020040C3020094DA020010B5017D24
:104B90000446022912D004290FD009B3114A124B3E
:104BA0001248D21AD208920142F0010212F0CDF856
:104BB00020460BF079FA002010BD052104F1080011
:104BC00015F032FD204600F039F9011EF0DA054AF1
:104BD000054B0748D21AD208920142F00102E5E7DC
:104BE0000121EBE724C00200E4BF0200BEDA0200AC
:104BF000CEDA02002DE9F3418046064618F8010B93
:104C00000D46042801F1FF3310D0052800F09380F1
:104C1000022840F0C980032B5CD86949694B6A4877
:104C2000C91AC908890141F0010109E0012B0CD81A
:104C30006349644B6548C91AC908890141F00101FB
:104C400012F076F802B0BDE8F08173783E2B19D1EE
:104C5000F778022F18D0A7F10D035F425F410222BF
:104C6000414601A813F095FC9DF80530033D9D4297
:104C70000CD05349534B5648C91AC908890141F011
:104C80000101DDE70027EAE70127E8E7002200232A
:104C900039469DF8040002F04FFA044650B9002F3F
:104CA000D0D14749474B4B48C91AC908890141F03F
:104CB0000101C5E700F10807022201A9384615F0F5
:104CC000D6FC2A46F11C384615F0D1FC204603F0EC
:104CD0005FFCB7E700220023032002F0D3F904466B
:104CE00000B3042241460DEB020013F052FC0422F3
:104CF00004F1080738460DEB020115F0B8FCBDF8C9
:104D00000630053D9D424CD02D492E4B3248C91AE4
:104D1000C908890141F0010112F00AF820460BF0A0
:104D2000C3F98FE72649274B2C48C91AC9088901BE
:104D300041F0010184E7032B08D82149214B284881
:104D4000C91AC908890141F0010179E7002200234D
:104D500002F098F90446D8B1042241460DEB020056
:104D600013F017FC042204F1080738460DEB02018A
:104D700015F07DFCBDF80630053D9D4211D010496F
:104D8000104B1848C91AC908890141F00101C3E74D
:104D90000B490C4B1448C91AC908890141F001019B
:104DA0004EE72A46711D8EE7064B054A0146D21A88
:104DB000D20892010D4842F0010211F0C6FF41E70E
:104DC00024C00200E4BF020047DB0200E6DA020072
:104DD00007DB02002BDB020080DB020066DB020047
:104DE000A2DB0200DBDB0200C1DB0200FDDB020014
:104DF0000B4908B50B48FFF785F8011E0BDA0A4B83
:104E00000A4A0B48D21AD208920142F0010211F06C
:104E10009CFF084808BD084B00201960FAE700BF56
:104E20008578020025DC0200E4BF02002CC00200ED
:104E300030DC02002AF8FFFF88950020024B8289AF
:104E400081681868FFF79AB88895002008B5024B6A
:104E50001868FFF789F808BD8895002010B5064C42
:104E6000064922460648172311F058FC2046BDE8A3
:104E70001040172111F0F7BE68DC0200E4DE0200EA
:104E8000B2CF0200044A1368C81A20F07F400344DE
:104E9000136010F053BD00BF9C9500202DE9F04732
:104EA0004FF480374FF00009860000F1500406F1FE
:104EB0008046A40006F5A836A4B204F18044D6F8D2
:104EC0004035DFF86C8021F07F4504F5A834874039
:104ED000D8F804A5A3EB0A0323F07F432AF07F420E
:104EE000012BC6F8402502D1132016F013FE0AF15B
:104EF0000202AB1A23F07F43B3F5000F88BF1546BB
:104F0000C4F80090236825F07F43C8F84473C6F8BE
:104F10004035D8F804359A4506D0EB1A023B23F009
:104F20007F43B3F5000F01D8BDE8F0872B46CFE7EC
:104F300000500140F8B5002427460F4E0F4B104A91
:104F400018461D6804B1F8BDD2F80413C903FAD598
:104F500031680029F7D0346031684FF48031C2F8ED
:104F600048130124D2F8401525B100205A681F606B
:104F7000A847E3E70560E6E740510140909500202F
:104F80000050014038B500244FF480334FF4001234
:104F90000D4D0121C5F80845C5F804330B4B15200C
:104FA000C3F88021224601F001F9152001F0E0F854
:104FB0000123074A02201360064A2B601360FFF7A3
:104FC00011FD204638BD00BF0050014000E100E067
:104FD0000850014098950020134BB0F1FF3F08BFE7
:104FE0001846013800281CDD9842A8BF18460F4B10
:104FF000D3F804250E4B1968521A12F4000F18BF8B
:10500000002022F07F4301330A4A03440A4810601B
:1050100000205060044A934294BFC9188918FFF7D2
:105020003DBF0020E3E700BFFFFF7F0000500140CD
:105030009C95002090950020854E0100044BD3F8EC
:105040000405044B1B68C01A20F07F40704700BF66
:10505000005001409C95002038B54FF02003EFF33D
:10506000118583F31188BFF36F8F1B480DF0B4FED9
:1050700068B98123194A1A491A4811F04FFB164999
:10508000194811F04BFB8121144811F0ECFD124836
:105090000DF0BEFE154B1048D3F80445144B1B68A9
:1050A000E41A24F07F441C440DF0A4FE68B9AC233C
:1050B0000A4A10490B4811F031FB07490E4811F01C
:1050C0002DFBAC21054811F0CEFD85F31188BFF30F
:1050D0006F8F204638BD00BFA095002072D002001F
:1050E000C4D00200B2CF0200D9D00200005001406B
:1050F0009C95002098D00200AFD0020008B5064968
:10510000064B0748C91AC908890141F0010111F08D
:105110000FFE002008BD00BF14C00200E4BF020063
:10512000E4DC020038B5C51C25F00305742D09D94F
:10513000184919485023194A11F0F0FA502117481C
:1051400011F091FD164CD4F83C3123B1D4F8443120
:105150002B44742B18D9782016F07CFD78B10023ED
:105160000360D4F840215AB9C4E94F00C4F844316F
:10517000D4F844311A1D1D441044C4F8445138BDBC
:105180001060C4F84001F1E7D4F84001002838BFAE
:105190000020EDE726DD0200B2CF0200FBDC0200BA
:1051A000A49500202DE9F843234C0746D4F8343168
:1051B0000E46222B0DD9214B21492248C91AC90874
:1051C000890141F0010111F0B3FD00252846BDE839
:1051D000F88303681B78022B13D81B4A12F803804C
:1051E00006EB0800FFF79EFF054670B9134B144904
:1051F0001648C91AC908890141F0010111F098FD4A
:10520000E4E7FFF77BFF8046EAE7D4F83431304427
:105210005A1C0333DB0003F10409C4F83421A14410
:105220001C443B8A42462381BB7C3968A372606080
:1052300013F0AFF94D46C9E7A4950020E4BF020082
:1052400014C0020076DD02009DE0020092DD020043
:10525000084800F59C73D3E8EF2F42F00202C3E840
:10526000E12F0029F7D1D0F848311B680BB1416814
:1052700018477047A495002070B5044660B90F4BDD
:105280000F491048C91AC908890141F0010111F0FC
:105290004FFD2646304670BD0378022B0AD80A4AD5
:1052A000D55C2846FFF73EFF2A462146064613F006
:1052B00070F9EFE7FFF722FF0546F2E7E4BF0200CF
:1052C00014C00200AFDD02009DE002002DE9F341B1
:1052D000914C0D462368274683420DD08F4B904951
:1052E0009048C91AC908890141F0010111F020FD57
:1052F0006FF00D01204676E0137C032B00F0D68082
:1053000011D8022B31D140F2B313874A874988481C
:1053100011F004FA874811F001FA40F2B311824803
:1053200011F0A1FC25E0052BEDD1002940F09F8074
:10533000D4F83431012B40F29780238C04F108011A
:10534000013323820323237607F0E6FE064680B16D
:10535000724B734A0146D21AD2089201764842F043
:10536000010211F0F2FC3146C4E721B9204612F0E7
:10537000D1FA00245AE0D1F80C8028460821FFF722
:1053800011FF00244FF42053064601A928688DF828
:105390000440ADF8063013F097F9B0B142F60103BE
:1053A000694628688DF80040ADF8023013F08CF99A
:1053B00058B162495E4840F217135B4A11F0AEF9EA
:1053C00040F21711584811F04EFC7EB9534B544926
:1053D0005B48C91AC908890141F0010111F0A8FC14
:1053E0006FF00B014C4812F0A9FAC2E7304612F0F8
:1053F000BBFA05460822414613F0CBF82868FFF7B0
:105400003BFF0446286060B94549444B4D48C91AE2
:10541000C908890141F0010111F08AFC6FF00B010C
:1054200066E0AA88B388934204D10124204602B0E2
:10543000BDE8F081052300243B76B388424901335F
:105440003868BC603B82FA8207F066FE014600289D
:105450008FD0334A314B3D48D21AD208920142F0E4
:10546000010211F072FCD9E7FFF7F2FE81E7002498
:1054700042F60303286801A98DF80440ADF8063010
:1054800013F022F980B908212846FFF78BFE044665
:105490000028CAD1224A214B298AD21AD208920165
:1054A0002B4842F00102DCE72146EDE70029DBD082
:1054B00000238DF8043042F60303286801A9ADF8F3
:1054C000063013F001F958B1224919484FF4C0735E
:1054D000154A11F023F94FF4C071134811F0C3FBC2
:1054E000298A0D4812F0D6F9044628B96FF0020156
:1054F000094812F023FA99E7EC6812F055FA0546CC
:105500002146082213F045F82868FFF7B5FE044647
:105510002860002889D181E7A4950020E4BF02001B
:1055200014C00200C3DD0200FBDC0200E4DE020066
:10553000B2CF02004CE0020064DF0200E5DD0200B1
:10554000E6DE02000FDF0200AC9500203DDF020026
:105550008FDF0200CDDF02002DE9F04706460F463F
:105560000024DFF84880DFF84890DFF848A02146A3
:10557000304612F031FA0446A8B112F015FA054689
:1055800058B94946504640F2FB13424611F0C6F85E
:1055900040F2FB11404611F066FB3846296813F0D3
:1055A00093F80028E3D12046BDE8F087FBDC020039
:1055B00062E00200B2CF020070B50546084619B19C
:1055C000097811F0FD0F3FD1002A3DD0214C04F5A0
:1055D0009C76D6E8EF1F41F0010CC6E8EECFBEF195
:1055E000000FF6D111F0010131D1C4E90053C4E933
:1055F0004F11C4F84821C4F83411C4F8441108B15B
:10560000FFF73AFE144BA060E360012323824FF6BC
:10561000FF73E382002328461049237607F07CFDC0
:10562000044678B10E4B0F4A0146D21AD2089201B5
:105630000D4842F0010211F088FB6FF001010B48A8
:1056400012F05DF9204670BD6FF01504FAE76FF0B7
:105650007704F7E7A4950020CD520100AC95002017
:10566000E4BF020014C0020076E00200DC960020D5
:1056700070B5064D86B001AC0FCD0FC4044C01AE21
:105680000FCE0FC42B68236006B070BD80C102002E
:10569000209700202DE9F04F294C8BB094F8213051
:1056A000064600910392002B3CD000273D464B78E4
:1056B00094F828B094F820A0019357450ED386F8AB
:1056C0003C50BBF1000F2BD0AA452BD1737801338E
:1056D0007370012386F83430B37023E04FF0000973
:1056E000009B039A5B680293164B13F80280019BA0
:1056F000994505D3BBF1000FE1D101371834DCE740
:10570000029B424603EB090105A813F007F80028A5
:10571000F0D0A16805A812F0D7FF30B1C144E6E788
:10572000002DD3D10BB0BDE8F08FA16806EB850248
:1057300001359163EDB2BBF1000FDED1BFE700BFD1
:10574000F0960020ACE00200F8B505460E4617467C
:10575000084B1C680CB1043C04B9F8BD23681B68F5
:105760001BB13A46314628469847231DF5D0646858
:10577000F0E700BF3C97002050B100234360054B89
:10578000021D596811B9C3E9002270470A605A60C6
:10579000704700BF3C970020F8B505460C4600292D
:1057A00048D04FF0FF324FF0FF3324480DF04EFB4E
:1057B000032D0CD038D9043D012D94BF6FF00B049C
:1057C0006FF015041D480DF03BFC2046F8BD1C4A47
:1057D00092F8203043BB2378012B0CD0022B11D040
:1057E0002BBB206802F10C03D060936001230024DE
:1057F00082F82030E6E702F10C0394E8030083E826
:105800000300F2E7234602F10C04264603F11007D9
:10581000254618685968083303C5BB422C46F7D1A2
:105820001B782B709660E1E76FF00B04CAE76FF00E
:105830001504C7E76FF01504C7E700BF28850020EF
:10584000F09600200022054B5A70DA705A7183F8E6
:10585000212083F8252083F827207047F096002028
:1058600008B5830625D0FFF7EDFF10F0020F18BF33
:105870000122114B18BF5A71C20744BF01225A704E
:10588000C20644BF0122DA70420744BF012283F8F6
:105890002120020744BF012283F82520820648BF49
:1058A00001224FF0000048BF83F8272083F828101A
:1058B00008BD6FF01500FBE7F096002070B50E46AE
:1058C00086B0054612F017F9184B02AC0FCB84E8EE
:1058D0000F00214601AB3046154A04F0E3FB154B9F
:1058E00008351C6868B10CB1043C0CB906B070BD39
:1058F00023689B680BB128469847221DF6D0646840
:10590000F1E71CB9019804F031FAEFE7019E043C7D
:10591000002CF7D02368DB6813B13146284698473E
:10592000231DEFD06468002CF1D1EBE794C1020095
:10593000349700203C9700202DE9F041314F96B07C
:10594000542205460C4601A8002112F04DFE97F89E
:1059500028208DF8072000228DF8042097F82120B8
:1059600012B101238DF804302B7A204603F0010395
:105970008DF8083014F06FFE06462349204601AA30
:10598000B4F8048003F01CFB204BA068CDE904347C
:105990009DF8073010FA86F62660A4F80480039577
:1059A0002C68ABB19DF805209DF804309A4213D1C4
:1059B0009DF8082006A903A8FFF7C6FE97F82C302B
:1059C0001BB1214601A8FFF779FF16B0BDE8F081B1
:1059D0009DF80630002BEBD10D4B1C68002CF4D049
:1059E0009DF80850043C002CEFD023685B6813B18D
:1059F000294603A89847231DE7D06468002CF1D1FD
:105A0000E3E700BFF0960020C57A0200349700203B
:105A10003C970020F8B50546174C184803F096FC53
:105A20002C220021204612F0DFFD2746D5B12B792C
:105A300084F82C302C6864B10FCC07F130060FC607
:105A400023683360AA683AB10D4B1068516803C3EC
:105A5000F8BDFFF70DFEF5E74FF0C8730949C7E938
:105A60001113F5E7FFF704FE4FF0C873054A84F8F9
:105A70002C50C4E91123EBE7F0960020408200206F
:105A8000349700201800280008B1012806D1054BE2
:105A9000002183F83000044803F0CABB6FF0150002
:105AA000704700BFF0960020209700202DE9F043BA
:105AB00097B00E46054611F08DFF11F055FF11AA63
:105AC0001746614BD0F800C003F1100E1446186859
