:020000040100F9
:10000000089D0021E90202012D8E0201490302012F
:1000100049030201490302014903020100000000F3
:10002000000000000000000000000000910002013C
:10003000490302010000000039000201B9FB01017F
:10004000C1020201C1020201C1020201C102020198
:10005000C1020201C1020201C1020201C102020188
:10006000F1920201C1020201C1020201C1020201B8
:10007000C1920201C1020201C1020201C1020201D8
:10008000C1020201DB920201C1020201C1020201AE
:10009000C1020201C1020201C1020201C102020148
:1000A000C1020201C1020201C1020201C102020138
:0800B000C1020201C1020201BC
:1000B80053B94AB9002908BF00281CBF4FF0FF31C7
:1000C8004FF0FF3000F070B9ADF1080C6DE904CEC7
:1000D80000F006F8DDF804E0DDE9022304B070471B
:1000E8002DE9F047089E0D4604468A46002B7FD12D
:1000F8008A42174641D9B2FA82F24AB1C2F12001C6
:1001080005FA02F39740944020FA01F141EA030A04
:100118004FEA17484FEA144C1FFA87F9BAFBF8FE62
:1001280008FB1EA30EFB09F14CEA0343994206D9CA
:10013800FB1802D2994200F224810EF1FF3E591AAF
:10014800A3B2B1FBF8F008FB101100FB09F943EA70
:100158000144A14505D93C1902D2A14500F20E81FE
:100168000138A4EB090440EA0E4000211EB1D44036
:100178000023C6E90043BDE8F08702B9FFDEB2FA02
:1001880082F2002A4FD1CB1B4FEA174E1FFA87F88D
:100198000121250CB3FBFEFC0EFB1C302B4608FB93
:1001A8000CF945EA0045A9450AD97D192CBF012358
:1001B8000023A94502D9002B00F0D9800CF1FF3C9F
:1001C800A5EB0905A3B2B5FBFEF00EFB105508FB25
:1001D80000F843EA0544A04505D93C1902D2A045D8
:1001E80000F2C9800138A4EB080440EA0C40BDE7DE
:1001F8008B4208D9002E00F0B1800021C6E9000525
:100208000846BDE8F087B3FA83F1002946D1AB422E
:10021800C0F0A780824240F2A4800846002EAAD0EF
:10022800C6E9004AA7E7C2F12000974001FA02F3A5
:100238004FEA174EC14024FA00F51FFA87F8944098
:100248001D43B1FBFEF02B0C0EFB101100FB08FC4C
:1002580043EA01439C4509D9FB182CBF0121002121
:100268009C4502D9002900F095800138A3EB0C03C6
:10027800ADB2B3FBFEF10EFB113301FB08FC45EAFE
:100288000345AC4505D97D1902D2AC4500F28980F9
:100298000139A5EB0C0341EA00417AE7C1F12004DA
:1002A8008B4002FA01F705FA01FCE24020FA04F853
:1002B800E54000FA01FE134348EA0C024FEA1348EE
:1002C8004FEA124C1FFA83F9B5FBF8FA08FB1A55E6
:1002D8000AFB09F04CEA054C60450AD913EB0C0CF3
:1002E8002CBF01250025604501D9002D55D00AF104
:1002F800FF3AACEB000C92B2BCFBF8F008FB10CC58
:1003080000FB09F942EA0C4CE14505D913EB0C0C4A
:1003180001D2E1453BD8013840EA0A40ACEB090C70
:10032800A0FB0789CC4545464A4602D306D1C645B7
:1003380004D20138B8EB070569EB03022EB3BEEB14
:1003480005036CEB020C23FA01F20CFA04F42CFA04
:1003580001F300211443C6E900430CE73146304657
:1003680009E7841A65EB030301209A4656E7ACF1C6
:10037800020C3D4424E702383C4434E702383C444C
:10038800EFE6AEF1020E3B44D9E63146F3E6023819
:100398009C44C1E702383B4468E7AAF1020A9C443E
:1003A800A7E702393D4474E7704700BF73B50A4CAC
:1003B80015461E46A46914B1A04702B070BD0DF1E0
:1003C80007008DF807401AF083F99DF8073020469A
:1003D800ED1A3570F1E700BFE0100021014B1879E4
:1003E800704700BF00110021044B1A79824286BF72
:1003F8001B6803EB40100020704700BF001100216C
:100408002DE9F047DFF8E48098F82E40E4B204F1D3
:10041800080908EB89035D78202D4BD0314E324F07
:100428006401631908EB430393F83430013B052B4F
:1004380053D8DFE803F00352524845034FF0070A48
:100448000EB100E000BFEFF3108272B608EB890925
:10045800631999F8021008EB4303A94293F8353061
:1004680089F8013028D01AB90FB100E000BF62B690
:10047800631908EB430393F834203AB3062A25D0CE
:10048800032A23D0052A21D0012283F8342005EB42
:1004980085032846514608EB8303D3F8B4309847C0
:1004A80098F82E40E4B204F1080908EB89035D7856
:1004B800202DB5D1BDE8F087202389F80230D2E796
:1004C8004FF0030ABCE74FF0020AB9E72C440123B6
:1004D80008EB440484F83430D9E740F6C1017020B1
:1004E80003F08AFE0000000000000000081100214F
:1004F8002DE9F04F002385B0DFF8A8B18A460093B4
:10050800064601F108030BF1B409DFF89C81019359
:10051800019B1BF82340202C00F09880A50032682E
:100528002B190BEB8303D3F8BC30D31A1B02FF3310
:100538007BDB73899BB32F190BEB8707B7F8C230A6
:100548006BBBD7F8B80002F077FFB7F8C23097F95D
:10055800C020404503F103031344034400F29D8087
:10056800434500F39580002B03DA03F1F45303F5B8
:10057800902318460DF10B0203A902F06BFF9DF9B9
:100588000B103268039B0029A2EB0303CCBF342174
:1005980033211B0248BFFF33B1EB232F45DC04EBAB
:1005A8004A140BEB440494F83540202C4ED0A50097
:1005B800B6E7306802F040FF738996F90820404595
:1005C80003F103031344034467D843455BDC002B62
:1005D80003DA03F1F45303F5902318460DF10B02E7
:1005E80003A902F037FF9DF90B2059F8073003994A
:1005F800002AA3EB0103CCBF342233221B0248BFDD
:10060800FF33B2EB232F21DD2544337B0BEB85052C
:1006180095F8C4209A421DD904EB4A140BEB440404
:1006280094F83540202C11D0A5002F197268BF000E
:10063800043759F8073009EB07019B1A1B02FF33EF
:10064800E2DB4B8913B17389002BB2D0009805B057
:10065800BDE8F08F31680122736800925B1AD5F803
:10066800BC209BF82B10134422F07F4023F07F43DB
:100678003060736000293FF44BAF0023009300986B
:1006880005B0BDE8F08F03F1614303F5F703A4E774
:1006980003F1614303F5F7036BE740F2F151702072
:1006A80003F0AAFD08110021FF7F841E2DE9F04701
:1006B800344D074600F10808AB7F15F82840002B99
:1006C80014BF0026022602F00DFD05F1B4024FEA20
:1006D800471C202104EB84030CEB040E9B0005EB64
:1006E8004E0E043352F803901344A9EB00095B68DB
:1006F80029F07F4A1B1A564543EA090307D813F421
:10070800400F04D1202909D12046BDE8F0879EF882
:1007180035302146202B30D01C46DBE77F0115F809
:10072800286004207B18324605EB430393F83530E4
:1007380005F8283000E02246BB18914205EB430338
:1007480083F8340093F83540F5D105EB88018B78B0
:10075800DBB2202B14D03B4405EB430383F8356010
:10076800174405EB88082023204605EB470588F841
:10077800022085F83530BDE8F08721461C46C1E7E0
:100788004E70EDE708110021202A67D02DE9F04FBF
:10079800144683B0074689469B46DFF8D480DFF8C5
:1007A800D4A0A6007A683519AD00043558F805308C
:1007B80008EB05019B1A1B02FF3332DB4B8963B33D
:1007C8007B8953BB386802F037FE7B8997F908208C
:1007D800504503F103031344034441D8534534DC23
:1007E800002B03DA03F1F45303F5902318460DF1B7
:1007F800030201A902F02EFE9DF9032058F80530E6
:100808000199002AA3EB0103CCBF342233221B0237
:1008180048BFFF33B2EB232F03DC012003B0BDE850
:10082800F08F2644114B8BF8004003EB86063A7B89
:1008380096F8C41091420DD904EB491403EB440314
:1008480093F83540202CACD1E7E703F1614303F579
:10085800F703CBE7002003B0BDE8F08F0120704715
:1008680040F2F151702003F0C7FC00BF08110021CD
:10087800BC110021FF7F841E2DE9F041224E82B079
:100888000546D01EB24214469DF82070A0EB010028
:1008980030D8B042984605F1080226DC00281FDB54
:1008A800294602F0D7FD2A6804EB080022F07F42AF
:1008B8002A609FB1012F22D15E300DF10702291D58
:1008C80002F0C8FD9DF90730002B6B68C8BF0133E3
:1008D80023F07F436B6002B0BDE8F0817D30ECE728
:1008E80000F1F45000F59020DAE700F1614000F5DE
:1008F800F700D5E740F2F151702003F07DFC40F29B
:100908009961702003F078FCFF7F841E2DE9F04385
:1009180014460D46CA7A89B006461F4608788B7A6F
:1009280009892373A073627361816B68009230B97F
:10093800EA682046FFF7A0FF09B0BDE8F08300226F
:100948002046DFF8A490FFF797FF04A90DF10F02E6
:10095800608902F07FFD99F82F30202B2FD0D9F82D
:100968001030073323F07F426368394627682046F2
:100978002260DB1B134423F07F436360FFF7B8FD5D
:10098800EA7A6B6804A80092EA682989FFF774FF7D
:10099800636805989A1B216822F07F42904203D32E
:1009A8008A1B12F4400FC7D0334426F07F465B1AE7
:1009B800266023F07F43636009B0BDE8F083638954
:1009C80006F10B084BB999F83533049A934201D9CB
:1009D8009B1A984428F07F42C6E703F00DF90028D7
:1009E800F1D106F13D08EEE7081100212DE9F04F9D
:1009F800144695B0B64D834604EB8404069102F084
:100A08006BFB05F1B401A400D5F83823019001204F
:100A18002B19043410600FAEB8330F1951F8048045
:100A2800B7F80A900FCB86E80F007B68404609F1BB
:100A38000304079397F908301E46089302F0FCFC5C
:100A4800A44B34449842044400F2FD829C4200F3D3
:100A5800F580002CC0F2BB806B7F2F7F0293B9F129
:100A6800000F04D095F82C20002A00F0F38095F8A8
:100A780034C30CF0FD03012B48D00020B9EB000370
:100A88000246824618BF01230593002F0BBF394643
:100A980002213B46002303910199B1F1807F6FD079
:100AA800A8EB01010902FF296ADD002B40F0F18063
:100AB800DDF804B019464FF0010E002865D10497FF
:100AC800002F62D10399012071440390002B64D157
:100AD8000298002840F08C80A8EB020E2EF07F468A
:100AE800A6EB0B00000248BFFF30B1EB202F40F30C
:100AF800F4801AB1BCF1030F40F0DE80002F40F003
:100B0800D8800024204615B0BDE8F08FB5F836A38C
:100B1800D145AAEB090680F0AB8100236D4AE01E9F
:100B28009442A0EB0A0000F28E82904200F3848186
:100B3800002803DA00F1F45000F59020039319F12E
:100B480000030DF12B020BA918BF0123059302F036
:100B580081FC059B0B9A1D2ED4BF002303F00103D3
:100B680095F834C3A8EB02021846039B22F07F4293
:100B7800002B8AD0322103910199B1F1807F8FD166
:100B880003214FF0040E002899D003980026014451
:100B98000120CDE90360002B9AD0029B002B3BD1AA
:100BA800A8EB020626F07F46A6EB0B031B0248BF04
:100BB800FF33B1EB232F40F38F80002AA1D04FF0F1
:100BC800000ABCF1030F524657469AD0E8E704F1F1
:100BD800F4546B7F2F7F04F590240293B9F1000F32
:100BE8003FF445AF3EE7002F8BD00239002217466D
:100BF800A8EB020626F07F46A6EB0B00000248BFD2
:100C0800FF30B1EB202F68DD002AECD007B10239A4
:100C18004FF0000AEAE75246A8EB020626F07F46A4
:100C2800A6EB0B031B0248BFFF33B1EB232F53DDA9
:100C38004FF0000A5746002AEDD162E704F16144FB
:100C48006B7F2F7F04F5F7040293B9F1000F3FF48F
:100C58000EAF07E7039202F0CFFF00287FF407AF3B
:100C680095F834C3039A0CF0FD03012B00F0EB80D8
:100C7800019BB3F1807F00F00981A8EB03031B02FD
:100C8800FF2B40F30381012302468246059332235A
:100C9800039395F82D300493A3B1002F40F0D18031
:100CA800002800F00A8139460023DDF804B00393D8
:100CB80073E70239002711E707B102390022C64657
:100CC8009246F7E719460123DDF804B09E46F4E69C
:100CD80008110021FF7F841E0123002A08BF464611
:100CE800099302F0FFF9099B301A0002B0F5785F0A
:100CF80080F2D680069A012A00F0B280019A701E0E
:100D0800B2F1807F14BF9B4643F0010B20F07F4077
:100D1800BBF1000F00F0D8804FF0000B019002F0FB
:100D280031F8019B0399F31A23F07F4291423FF671
:100D3800E8AE079A0199521A134313F4400F7FF44F
:100D4800E0AE084602F078FBC14A231A934240F20B
:100D5800C880011B914240F24B81BE4A934200F287
:100D6800BD80914240F29B81201ABB4BC31803936C
:100D7800AB7F53B9CA45049A534638BF4B4602B9AC
:100D88001E33039A934280F28F81069B012B05D074
:100D9800022002F065FA012002F062FACA4500F268
:100DA800B280C0F007815AEA090040F0648101234B
:100DB8000322039902F09CF9002800F09D8095F821
:100DC8002D8095F82C30B8F1000F00F01881B0464E
:100DD800BBF1000F40F0BA80002B00F0218195F89C
:100DE8002D305BB19D4B01220520C3F8082502F088
:100DF80037FA02F051FD002385F82D3007990022BB
:100E08004FF0FF330CAE109108990D9401248DF822
:100E180044100299ADF846908DF84C708DF84D103D
:100E2800CDF83C800C920E938D4D0FCE0FC596E8F1
:100E38000F0085E80F0065E600F1614000F5F70056
:100E48007CE6022130E7B5F836A3D145AAEB0906BE
:100E5800FFF464AE1D2E0593D4BF0020012089E65F
:100E6800019BB3F1807F00F001814FF0000B58E740
:100E780019F100034FF0000218BF012305931D2E3E
:100E8800D4BF002303F001031846FEE50246012300
:100E98008246322003214FF0040E059303900EE69C
:100EA800731E19F1000B23F07F4318BF4FF0010B9D
:100EB8001846019301F066FF33E70123DDF804B01B
:100EC80004970393194668E6131A1B02B3F5A06F3B
:100ED80080F29180FF2B7FF724AF12E6614B234409
:100EE8001B1A039344E7012303990322A1EB090189
:100EF800184602F0FDF8A8B9022002F0B1F9012065
:100F080002F0AEF9FDE5039B03220220A3EB0A01E0
:100F1800012302F0EDF880F00100C3B20493059BB1
:100F2800002BE0D1012303220399002002F0E0F80E
:100F38000028E1D0049B002B7DD0002795F82C30A9
:100F4800B9F1000F7FF444AF464638E7002B74D15F
:100F5800019B0126DFF804A10322A3F13201052039
:100F68000023CAF8086521F07F4102F0C1F8002883
:100F780000F09080052002F057F94FF0004395F8F3
:100F88002D2039490360CAF804650B60002A4DD04A
:100F9800039BA3EB09011939002976DD03220123FC
:100FA800104602F0A5F800286AD0D5F83833002298
:100FB8001A6023E70123039903221846A1EB0901CC
:100FC80002F096F8BAF1000F0CBF002300F00103FD
:100FD8000493002B8FD0039B03220220A3EB0A016A
:100FE800012302F085F80023049300289AD183E7AF
:100FF8004B420393BCE6019001F0C4FE91E62BB985
:10100800B046BBF1000F3FF4F9AEA1E702F00CFCCB
:1010180085F82C80B046BBF1000F3FF4E0AE97E7AF
:1010280002F08EFB012385F82C30D8E602F026FC6E
:1010380085F82D60ACE7B04680E702F0F5FB0023A9
:1010480085F82C3084E740F2F151702003F0D4F891
:10105800FF1FA107FF7F841E00807BE100F0004195
:10106800081100210080841E8050004140F6F401E0
:10107800702003F0C1F840F65E11702003F0BCF850
:1010880040F65B21702003F0B7F84FF4256170201B
:1010980003F0B2F840F24D31702003F0ADF840F69D
:1010A800F321702003F0A8F840F62721702003F000
:1010B800A3F800BF2DE9F041434C01F108070E46A3
:1010C800804614F82750202D34D1404B0BB100E056
:1010D80000BF02F007F894F83030202B06D0E36800
:1010E800C3F1020303441B02FF2B28DC202D0CD084
:1010F80041462A46FFF77AFCB8B304EB870700237A
:1011080084F83050FB70BDE8F08194F82C3033BB84
:1011180094F82D30B3B9042002F0A2F802F02EF9A9
:101128002021D4F83833002284F8301001201A60C6
:10113800BDE8F0810846FFF7B9FA8542C5D000201E
:10114800BDE8F081224B01220520C3F8082502F0F2
:1011580087F802F0A1FB002384F82D30DBE702F0CA
:1011680063FB002384F82C30D2E7760114F827C0FB
:1011780004217319624604EB430393F8353004F8ED
:10118800273000E01A46B318954204EB430383F86E
:10119800341093F83530F5D104EB87018B78DBB246
:1011A800202B0ED0334404EB430383F835C0164498
:1011B80004EB8707202304EB4604BA7084F8353023
:1011C800A1E781F801C0F2E7081100210000000042
:1011D80000F00041002042F220014FF0FF3238B504
:1011E8001A4C20250346218404F13401A2600246EA
:1011F80084F8225084F8305084F82300206084F862
:101208002E00A07784F82F5084F8280084F829004D
:10121800A083A085C4F8340301F813200133202BE0
:10122800FAD1FF2301250A4884F83C3384F82A5070
:1012380003F062F884F83D0303F0C6F8C4F83803F5
:1012480001F03EFD84F8315038BD00BF081100217F
:101258000904000108B5064B93F82F20202A01D075
:10126800987708BD4FF47E71702002F0C5FF00BF6B
:101278000811002170B5012484401AB9084BC3F83D
:10128800084570BD054600200E4601F0CDFF45F02B
:101298000045034A05603560C2F8044570BD00BFCB
:1012A80000F000412DE9F04FBD4C83B001F01AFF6A
:1012B800054602F063F8A368013302D04FF0FF330C
:1012C800A360A37F002B00F00481637E002B00F055
:1012D800898001F075FE94F82A20002A40F0558193
:1012E80094F82F300121202B84F82A1000F0528125
:1012F800202194F8343394F82FA0023B84F82F105F
:1013080084F829205FFA8AFA94F82E80012B84F851
:1013180028205FFA88F88CBF00230123226008F197
:10132800080684F83010237714F826308B4209D049
:1013380003EB83039B0004EB030999F8C620012AF9
:1013480000F0F580DFF868924FEA481704EB860B47
:1013580014F82650202D04D04046FFF7A7F98542FF
:10136800F6D1B9F1000F01D000E000BF01F0BAFEDC
:1013780094F83030202B06D0E368C3F1020303440D
:101388001B02FF2BE4DC202D32D02A460121FFF777
:101398002DFB002861D004EB8603002284F830502E
:1013A800DA7007EB0A0304EB430393F83420022AAC
:1013B8003AD004EB86060122737884F82B20202B80
:1013C80003D094F83D0302F0B3FF237F002B40F0D5
:1013D800A38002F0F1FF10B1724B00221A6003B033
:1013E800BDE8F08FE81C20F07F4001F0CBFC72E7ED
:1013F80094F82C30002B66D194F82D30002B55D161
:10140800042001F02DFF01F0B9FFD4F83833002291
:10141800202184F830101A6007EB0A0304EB430319
:1014280093F83420022AC4D104EB860106208A7876
:1014380083F83400D3B2202B76D03B4404EB43032B
:1014480083F835A05744202204EB860304EB4707B2
:1014580083F802A087F83520ABE77B1914F826003B
:10146800042104EB4303024693F8353004F8263090
:1014780000E01A46BB18954204EB430383F8341086
:1014880093F83530F5D19BF80230DBB2202B48D0E9
:101498003B4404EB430383F83500BB1820218BF849
:1014A800022004EB430383F8351051E73E4B012239
:1014B8000520C3F8082501F0D3FE02F0EDF900235A
:1014C80084F82D309CE702F0AFF9002384F82C3023
:1014D80092E7D4E903304FF40C71C01A000248BFF8
:1014E800FF30001219F005F923690344EB1A1B02B7
:1014F800FF33FFF6EAAE94F82F30082194F82F0056
:1015080003EB830304EB8303D3F8B430984740F22A
:101518003D41702002F070FE01F07AFF0023A383A2
:1015280057E78BF80100B8E781F801A08AE701A91D
:101538000DF10302B9F8C2001F1D01F08BFF94F8EA
:101548002F301A49202B01EB070B0ED023690733E4
:1015580023F07F42DBF80430C859CA511B1A1344E0
:1015680023F07F43CBF80430ECE6B9F8C23005F13C
:101578000B0913B929F07F42ECE702F03DFB0B4958
:101588000028F7D105F13D09F4E740F24E417020FB
:1015980002F032FE40F25141702002F02DFE00BFF1
:1015A80008110021048C004100F00041BC11002109
:1015B8000000000070B5124E054602F025FA00231F
:1015C80096F82E4006F13401E4B201EB841102E0F2
:1015D8000133202B12D011F81320D8B2002AF7D1EA
:1015E80003EB4414012203EB830306EB440406EBEC
:1015F800830384F83420C3F8B45070BD184670BD16
:101608000811002108B5034B93F8350301F014FFC6
:1016180080B208BD081100211F2813D8114A92F87A
:101628002E3000EB431302EB430393F8343053B1ED
:1016380092F82E3000EB431302EB430393F8343057
:10164800012B02D000231846704710B492F82E40A0
:10165800002100EB441010BC02EB400080F834106D
:10166800184670470811002108B501F03BFDBDE898
:10167800084001F0E1BE00BF164A904208B501EBF0
:10168800000321D81448814219DC1448814211DB37
:10169800934209DC002B01DB184608BD03F1F45323
:1016A80003F59023184608BD03F1614303F5F703DA
:1016B800184608BD40F2F351702002F09DFD40F23B
:1016C800F251702002F098FD40F2F151702002F0C2
:1016D80093FD00BFFF7F841E0020A10700E05EF895
:1016E80010B5174C94F8302082421DD000EB8000D2
:1016F80004EB8004D4F8B80001F09EFEB4F8C230C0
:101708000146104A94F9C00003339142034403EBA5
:10171800010010D8904202DC002807DB10BD00F160
:10172800614000F5F70010BD606810BD00F1F4508D
:1017380000F5902010BD40F2F151702002F05CFDE0
:1017480008110021FF7F841EAB4A5368C3F30803C6
:101758002DE9F04F89B0002B00F02681103B59B2DB
:101768000029C0F2A080A54B13F801804FEA581851
:101778000378002B40F0A3808146A14EA14C9A46E5
:10178800019324B100214FF4C86000E000BF96F82F
:101798002E5086F82BA0EBB2009324B1002140F222
:1017A800456000E000BFB8F1000F48D124B1002126
:1017B80040F24D6000E000BF01F094FC009B04AAD9
:1017C80049460746FFF7A2F824B1002140F25360CA
:1017D80000E000BF96F82F30202B76D033690499AB
:1017E800CA1A1202FF3270DA059823F07F424FF0CE
:1017F800010B034404925B1A23F07F43059324B141
:10180800002140F25D6000E000BF24B1002140F2F9
:10181800636000E000BFDDE90432DB1BD21B134329
:1018280013F4400F54D0B8F1000F40F0898096F8B7
:101838002B30002BA5D1019809B0BDE8F08F009A94
:10184800714B571C1D4603EB821E07F00107BEE8CB
:101858000F0005EB871C5FFA87FBACE80F00BEE8BA
:101868000F00ACE80F00BEE80F00ACE80F009EE8E0
:101878000F008CE80F0024B1002140F2B55000E0C1
:1018880000BF009D0837083556F8253046F8273040
:10189800002C00F08680002140F2B950CDF800B04D
:1018A80000E000BF82E703F00F03043B134493F802
:1018B800188003784FEA5818002B3FF45DAF0023D7
:1018C8000193019809B0BDE8F08F4FF0000B96E73F
:1018D800B8F1000F28D1BBF1000F08D10CB30021DB
:1018E80040F2766000E000BF012301939FE704986F
:1018F80001F0A2FDBDF81A309DF9182003331344F6
:10190800424A9042034472D8404A93424FDC002B2B
:1019180003DA03F1F45303F59023C9F80C30002CD3
:10192800DDD10123019382E7009904A8FEF7E0FDC9
:101938004BEA000B5FFA8BFBBBF1000FCED0D6E76A
:101948000DF10B0203A9BDF81A0001F083FD96F80A
:101958002F30202B35D03369073323F07F45059B83
:101968002846049904955B1A2B4423F07F4305937A
:1019780001F062FDBDF81A309DF9182003331344B5
:10198800224A9042034432D8934215DC002B03DAF2
:1019980003F1F45303F59023C9F80C3001230193A4
:1019A80045E7CDF800B001E74FF00808E0E603F19D
:1019B800614303F5F703B0E703F1614303F5F70368
:1019C800EAE7BDF81A3007F10B054BB996F835333D
:1019D800039A934201D99B1A1D4425F07F45BEE71F
:1019E80002F00AF90028F1D107F13D05EEE740F2CF
:1019F800F151702002F000FC00ED00E000E400E08E
:101A080008110021000000003C110021FF7F841E06
:101A1800AD4A53682DE9F04FC3F308038DB08146F2
:101A28000291002B00F05482103B59B20029C0F2F9
:101A38002E81A64B5B5C5B090193002B40F0318142
:101A4800A34C94F82F30202B00F0B782029B1B7810
:101A58000193002B40F0C582DFF884B2BBF1000F80
:101A680004D0002140F24D7000E000BF09EB89036B
:101A78004FF001089B000393BBF1000F04D0002135
:101A880040F2557000E000BFB8F1000F04D1914B4F
:101A98000BB100E000BF62B64FF0000394F82EA02F
:101AA80084F82B305FFA8AFA019B002B40F0808182
:101AB80055460AF10807BBF1000F04D0002140F297
:101AC800697000E000BF01F00DFB534608AA0299B7
:101AD8000646FEF71BFFBBF1000F04D000214FF4B0
:101AE800EE6000E000BF6D0105EB090304EB430362
:101AF80093F83430013B012B00F2E4800899764BCF
:101B08008A1B134033B1099B9E1B164316F4400FE2
:101B180000F0E88004EB870105EB090204208B78CC
:101B280004EB4202DBB282F83400202B00F00A8278
:101B38002B4404EB430383F835904D44202204EBF7
:101B48008703012604EB450583F8029085F83520C4
:101B580004EB8707FD78EDB2BBF1000F04D000213C
:101B680040F2777000E000BF5C4B0BB100E000BFB3
:101B7800EFF3108772B6B846BBF1000F04D000210E
:101B880040F27D7000E000BF94F82B3003F0FF01B5
:101B9800002B7FF471AFBBF1000F03D040F28570CA
:101BA80000E000BF039B04EB030C08AB0CF1B80C7E
:101BB8000FCB8CE80F009EB3BBF1000F04D00021BF
:101BC80040F2927000E000BF019B002B0CBF002583
:101BD80005F00105BDB194F82F30202B13D1BBF1CE
:101BE800000F04D0002140F2977000E000BF51467A
:101BF8000220FFF75FFA30B9029B1B78002B00F038
:101C0800AC81012B54D0BBF1000F04D0002140F26D
:101C1800B47000E000BF012384F82EA084F82B30B4
:101C2800BBF1000F04D0002140F2BD7000E000BFFE
:101C380027B9284B0BB100E000BF62B6BBF1000F1B
:101C480004D0002140F2C17000E000BF9EB194F8BA
:101C58002E3004EB830393F82130202B0BD0BBF1FB
:101C6800000F04D000214FF4F96000E000BF94F8A1
:101C78003D0302F05DFBBBF1000F04D0002140F2F0
:101C8800CD7000E000BF30460DB0BDE8F08F03F026
:101C98000F03043B13441B7E5B090193002B3FF4A5
:101CA800CFAE029B1B78012B00F28C81084CD3E647
:101CB800BBF1000F3FF4E0AE014640F2AA7000E02D
:101CC80000BFD9E6002643E700ED00E000E400E0AD
:101CD8000811002100000000FEFFFF0000000000C6
:101CE8000000000014F82780B8F1200F00F09B8056
:101CF80008EB8803464604EB8303D3F8BC30CB1AC1
:101D08001B02FF33C0F2028120230493BDF82A305E
:101D1800002B37D006EB860304EB8303B3F8C2200D
:101D280082BBD3F8B800059301F086FB059BB3F896
:101D3800C22093F9C03003321A44AC4B9842024493
:101D480000F24A81A94B9A4200F3FF80002AC0F2B0
:101D5800E68007AB10460DF11B021946059301F00A
:101D680079FB9DF91B00059B0028DDE90721CCBF05
:101D7800342033208A1A120248BFFF32B0EB222FD8
:101D880000F3C9802E4404EB460696F83520202A35
:101D98004AD002EB82031646CDF8108004EB830389
:101DA800D3F8BC30CB1A1B02FF333DDB9046ADE7BE
:101DB8008F4E0AF1010506EB8A1705F001050FCFD2
:101DC80006EB85160FC60FCF0FC60FCF0FC697E8C5
:101DD8000F0086E80F00BBF1000F04D0002140F28D
:101DE800B55000E000BF0AF1080A05F1080754F8E9
:101DF8002A3044F82730BBF1000F04D0002140F20C
:101E0800B95000E000BFBBF1000F04D0002140F240
:101E18005F7000E000BF94F82B30002B7FF42CAEED
:101E28005FFA85FA47E6424607AB514608A88DF89F
:101E38001C80FEF7A9FC064600283FF46BAE9DF80F
:101E48001C10414547D0202900F0C1806B18B8F11B
:101E5800200F04EB430393F835206ED005EB0803FD
:101E680004EB430393F835C083F835206246052018
:101E780000E01A46AB18914204EB430383F83400A0
:101E880093F83530F5D104EB87008178C9B2202961
:101E980060D0294404EB410181F835C04FF0200E91
:101EA800A81805EB090104EB870C04EB4000F0458A
:101EB80004EB41018CF8022080F835E081F83530D8
:101EC80018D104EB8703012204F82790DA7016E092
:101ED80008230193E5E6B8F1200F25D005EB0802A9
:101EE80005EB090304EB420204EB430392F83520A7
:101EF80083F83520A84404EB480888F835904D4409
:101F0800032304EB450585F8343021E6424607AB48
:101F18004FF0200889E74246DDF8108085E702F196
:101F2800F45202F5902214E705EB090314F8272070
:101F380004EB430383F83520C3E714F827C004F8FB
:101F4800272093E781F80190F7E502F1614202F555
:101F5800F702FEE680F801C0A0E71946BBF1000FC2
:101F680003D040F29F7000E000BF94F82E300426A2
:101F7800DBB203F108015B0104EB810C03EB090000
:101F88009CF8022004EB4000D2B280F83460202A8A
:101F980010D01A4404EB420282F835904B4404EB0B
:101FA800810220212E4604EB430382F8029083F835
:101FB800351035E68CF80190F0E740F24371702057
:101FC80002F01AF940F24A71702002F015F94FF444
:101FD8002371702002F010F940F2F151702002F0E4
:101FE8000BF940F24671702002F006F9FF7F841E5B
:101FF8003C1100212DE9F04FA04C83B080464FF0F2
:10200800010A9F4D04F1340B94F82E3025B10021BC
:1020180040F2DC7000E000BFBAF1000F04D1994B28
:102028000BB100E000BF62B64FF0000384F82B301C
:1020380025B1002140F2E17000E000BF94F82E9035
:102048005FFA89F909F101060BEB891C06F0010614
:10205800BCE80F000BEB86170FC7BCE80F000FC7D3
:10206800BCE80F000FC79CE80F0087E80F0025B1F8
:10207800002140F2B55000E000BF09F1080306F165
:10208800080954F8233044F8293025B1002140F2DA
:10209800B95000E000BF94F82B3003F0FF02002B8A
:1020A80040F0B08035B1114640F2EB70019200E08B
:1020B80000BF019A770107EB080304EB430393F889
:1020C8003430032B7FD114F82930202B18BF9845C2
:1020D80014BF0122002200F0C38019467A1808466E
:1020E80004EB420292F83510884518BF202914BF26
:1020F80001220022F2D1202965D08B4200F0948081
:102108003944384404EB410104EB400091F8352090
:1021180080F8352065B1002140F23A50019300E083
:1021280000BF019B984503D104EB89030122DA70B3
:1021380025B100214FF4FE6000E000BF07EB080363
:1021480004EB430393F834204AB1062A07D0032A44
:1021580005D0052A03D0012283F8342005E047443E
:10216800012304EB470787F8343004EB890999F811
:102178000370FFB225B1002140F2FB7000E000BF00
:10218800414B0BB100E000BFEFF3108A72B625B1E6
:1021980000214FF4006000E000BF94F82B30002BC2
:1021A80039D1F6B21FB194F82F30202B47D025B182
:1021B800002140F6180000E000BF012384F82E60DB
:1021C8001A4684F82B3035B1002140F621000192DF
:1021D80000E000BF019ABAF1000F0BD035B1002121
:1021E80040F62500019200E000BF019A104603B0B6
:1021F800BDE8F08F234B1BB1019200E000BF019AAC
:1022080062B6EBE7002D3FF401AF002140F2E77022
:1022180000E000BFFAE6002D3FF4F8AE002140F6DA
:10222800040000E000BFF1E6FA1804EB420292F85D
:10223800352004F82920002D7FF46DAF78E731466A
:102248000220FEF737FF02460028B0D1002DBAD091
:102258000146019040F6130000E000BF019AB2E782
:10226800202BB0D0FA1804EB420292F8352004F87B
:102278002920002D3FF456AF4DE700BF081100217B
:10228800000000000000000000000000002000F036
:10229800CBBF00BF014B93F83C03704708110021E6
:1022A8002DE9F041072800F29380DFE800F0184993
:1022B800647291798A04BA4C94F82F30202B00F07C
:1022C800DD8094F82F30052194F82F0003EB830369
:1022D80004EB8304D4F8B430BDE8F0411847B04C9F
:1022E80094F82C30002B00F01981E38A23B101F017
:1022F80083FC002800F04F8194F82F30202B00F049
:10230800E580A16801234A1C84F8293006D00322FD
:10231800052000F0EDFE002800F03881637E012BD7
:1023280000F01E8194F82F30012103EB830394F809
:102338002F0004EB8303BDE8F041D3F8B43018470D
:10234800974C94F82F30202B6FD0012584F8285013
:1023580001F052FC002800F00F8194F82C30002B7B
:1023680000F0F98094F82D30002B40F0E78094F8C5
:102378002F300021D9E78A4C01F04AF8E38A002B74
:1023880040F0D28094F83433032B07D101236377CC
:1023980004E0834B0122D3F838331A60BDE8F0819A
:1023A8007F4C94F82F30202B17D04FF0FF3294F841
:1023B8002930A260002B00F0DA8094F82F30062133
:1023C800B3E7774BBDE8F04193F83C0301F0B0BFA9
:1023D80040F69D01702001F00FFF94F82E30DBB21B
:1023E80003F1080114F82120202A00F0CA8002EB2A
:1023F80043130227012504EB810604EB4303002065
:10240800F57083F8347093F8353084F82B5004F85D
:10241800213084F82A0084F82F20A07701F0CCFF1F
:102428000028C2D05F4B1D60BFE794F82E30DBB2A6
:1024380003F1080114F82120202A00F0A28002EB01
:1024480043130227012504EB810604EB4303002014
:10245800F57083F8347093F8353084F82B5004F80D
:10246800213084F82A0084F82F20A07701F0A4FFF7
:1024780000283FF46AAF4B4B1D6066E794F82E3096
:10248800DBB203F1080114F82120202A79D002EBED
:1024980043130227012504EB810604EB43030020C4
:1024A800F57083F8347093F8353084F82B5004F8BD
:1024B800213084F82A0084F82F20A07701F07CFFCF
:1024C80000283FF4FEAE374B1D60FAE694F82E3034
:1024D800DBB203F1080114F82120202A51D002EBC5
:1024E80043130227012504EB810604EB4303002074
:1024F800F57083F8347093F8353084F82B5004F86D
:10250800213084F82A0084F82F20A07701F054FFA6
:1025180000283FF4F6AE234B1D60F2E601F010F9F7
:10252800012384F82C30E0E601F066FB00287FF4F4
:1025380029AF40F68B01702001F05EFE1A4B012294
:102548000520C3F8082500F08BFE01F0A5F900234B
:1025580084F82D300BE701F0F3F884F82C5001E7EC
:102568002069013820F07F4000F0CAFCDAE640F626
:102578007201702001F040FE40F68101702001F0E8
:102588003BFE40F29931702001F036FE40F66301BF
:10259800702001F031FE40F65D01702001F02CFE44
:1025A80008110021048C004100F000410B4B93F806
:1025B8002F20202A0BD093F82F20042193F82F00E6
:1025C80002EB820203EB8203D3F8B430184710B54C
:1025D80040F6A501702001F00FFE00BF0811002190
:1025E80010B52D4C82B094F82F30202B3BD0A36827
:1025F80001334CD16268294913188A4242D8284AC3
:1026080090423ADC274A904232DB8B421ADC002B9C
:1026180013DB18460DF1030201A900F01BFF9DF919
:102628000320019994F829300F2AC8BF013121F0FD
:102638007F41A1605BB902B010BD03F1F45303F50B
:102648009023E6E703F1614303F5F703E1E701238C
:102658000322052000F04CFD0028ECD140F6D921DA
:10266800702001F0C9FD40F6CF21702001F0C4FDB3
:1026780040F2F351702001F0BFFD40F2F25170209A
:1026880001F0BAFD40F2F151702001F0B5FD4FF4B0
:102698002D61702001F0B0FD08110021FF7F841E1C
:1026A8000020A10700E05EF80E4A0B1A93420DD9EC
:1026B80010B5441A944207D90B4A934208D8944259
:1026C8000AD90A48001B10BD604210BD1846704761
:1026D800074B0B44181A10BD40F6F321702001F087
:1026E8008BFD00BFFF1FA107FF7F841E00807BE1D9
:1026F8000080841E10B50A4C94F831306BB194F800
:102708003C33FF2B02D00023184610BD01F0F4FD26
:10271800002384F83C03184610BD6FF02203F3E74A
:102728000811002138B50F4B04460BB100E000BF7B
:10273800EFF3108572B6012321460322062000F02C
:10274800D7FC044625B9084B0BB100E000BF62B6C0
:1027580004B138BD054B93F83C03BDE8384001F09F
:10276800E7BD00BF000000000000000008110021C4
:1027780000F0B8BC314930B591F82F3083B0202B28
:1027880056D091F82F5091F82E3091F82E40EDB296
:102798000833E4B211F82330202B18D003EB83025E
:1027A80001EB820292F8C420824214D9640107E046
:1027B80003EB830201EB820292F8C42082420AD919
:1027C800234401EB430393F83530202BF0D14FF02D
:1027D800FF3003B030BD03EB830305EB850501EB48
:1027E800830301EB8505D3F8B800D5F8BC30C01ACF
:1027F800000210F1FF0F02DA002003B030BD0028FC
:102808000D68B8BFFF30001200F016FE0DF103028C
:1028180001A9044600F01EFE9DF90330002BC8BF35
:10282800E41A05F16403A342E6D8601B03B030BD87
:1028380040F63431702001F0DFFC00BF08110021A0
:102848002DE9F0435F4C83B094F82F30202B00F033
:10285800B38094F82F50064694F82E304FF0200C91
:1028680020680DF1030208330F46304401A914F81B
:102878002380EDB28DF802C0D4F8109000F0EAFD84
:102888009DF90330A6F164014F4A002B019BC4BF98
:1028980001330193914245D805EB850504EB850585
:1028A800D5E92E210B449A1A12F4400F3AD123F09D
:1028B8007F4094F82E1042460DF1020320614348F0
:1028C8002776FDF761FF002860D0052000F0C8FCDE
:1028D8009DF802704FF0FF3294F82E30202FA2603E
:1028E800DBB223D1083314F8230094F82E200121F9
:1028F80094F82F3084F82B1003EB4213617E226882
:1029080004EB43030129164483F83500266047D0B9
:10291800202F41D094F83D0301F00AFD002003B0B8
:10292800BDE8F083012003B0BDE8F0835D0103F149
:1029380008014FF0050CEB1914F821E004EB4303F0
:10294800724693F8353004F8213000E00246AB189F
:10295800974204EB430383F834C093F83500F5D16C
:1029680004EB810C9CF80230DBB2202B21D02B44E5
:1029780004EB430383F835E0154404EB810320217D
:1029880004EB45059A7085F83510AEE70220C4F8C7
:10299800109003B0BDE8F083002003B0BDE8F083D9
:1029A8002069013820F07F4000F0AAFA9DF80270F3
:1029B800AEE78CF801E0DFE740F66A31702001F0FD
:1029C8001BFC00BF081100219B1FA1071411002147
:1029D8002DE9F84F9D4C94F82E3000EB431304EB8F
:1029E800430393F83430002B00F02B8194F82E70B9
:1029F8000546974EFFB226B1002140F6B33000E0FD
:102A080000BF7F01002E40F0D18007EB050804EBE2
:102A1800480898F83430012B06D10EE017F0C4FEB0
:102A280098F83430012B08D01A1F022AF6D82F4400
:102A3800012304EB470787F834304FF0010ADFF829
:102A48001C9226B1002140F6CA3000E000BFBAF15E
:102A5800000F04D17F4B0BB100E000BF62B64FF00E
:102A6800000384F82B3026B1002140F6CF3000E077
:102A780000BF94F82EB05FFA8BFB0BF1010809EB4D
:102A88008B1C08F00108BCE80F0009EB88170FC77A
:102A9800BCE80F000FC7BCE80F000FC79CE80F0089
:102AA80087E80F0026B1002140F2B55000E000BFD2
:102AB8000BF1080308F1080B54F8233044F82B30C5
:102AC80026B1002140F2B95000E000BF94F82B3045
:102AD80003F0FF01002B60D11EB140F6D93000E0B1
:102AE80000BF04EB8B0359788D4200F09A802029AF
:102AF80000F097808A464FEA481200E0BA4602EB97
:102B08000A0304EB430393F83570BD4218BF202F26
:102B1800F4D1202F1AD0B94200F08A803A4404EB4D
:102B2800420292F8352083F8352026B1002140F280
:102B3800325000E000BF04EB8B039B789F425CD0CF
:102B480026B1002140F23A5000E000BF26B1002132
:102B580040F6DD3000E000BF3F4B0BB100E000BFA6
:102B6800EFF3108372B694F82B209A46002A4FD1BF
:102B78005FFA88F8012284F82E8084F82B2023B984
:102B8800344B0BB100E000BF62B626B100214FF410
:102B98003F6000E000BFBDE8F88F002E3FF451AF62
:102BA800002140F6D53000E000BF4AE77A1904EB6F
:102BB800420292F83430012B3FF43FAF90461A1F7F
:102BC800022A16D9002140F6BF3000E000BF17F0F6
:102BD800EBFD002140F6C33000E000BF002E3FF4BB
:102BE80014AF98F83430012B3FF427AF1A1F022A8C
:102BF800E8D8012388F83430EBE726B1002140F209
:102C0800355000E000BF04EB8B0B8BF802A097E770
:102C1800002E3FF416AF002140F6E33000E000BF7D
:102C28000FE7202992D00F464FF0200A4FEA4812AA
:102C38000A4404EB8B0304EB420292F835205A70E5
:102C480073E740F6AA31702001F0D6FA0811002186
:102C58000000000000000000000000003C110021FE
:102C680038B504460846154600F0E6FB1149031B33
:102C78008B420AD9221A8A420BD90F498B420DD8A6
:102C88008A4212D90D4B2344C31A03F10F00281AA4
:102C980038BD534203F10F00281A38BD074B1B1BE0
:102CA800034403F10F00281A38BD40F6F3217020C1
:102CB80001F0A2FAFF1FA107FF7F841E0080841E77
:102CC80030B404212B4C4FF0807300222A484FF473
:102CD8008055A17063602270C0F88050BFF34F8F99
:102CE800BFF36F8F254B0121C0F880514FF0FF359E
:102CF80022724FF400345960C3F80853C3F84025D2
:102D0800C3F84021C3F84425C3F84421C3F8482533
:102D1800C3F84821C3F84C25C3F84C211961C0F801
:102D28008040BFF34F8FBFF36F8F154AC0F88041C3
:102D3800134651609160D3F80425002AFBD14FF067
:102D4800FF310D4C4FF400350120C3F80813C3F8C8
:102D58004813C3F84025C3F84021C3F84425C3F8F5
:102D68004421C3F84825C3F848212560186030BCC1
:102D7800704700BF4814002100E100E000C0004196
:102D88000010014155490A78012AF8B520D14B684D
:102D9800834200F09980524D0626524B6FF48024EE
:102DA800C5F80865C3F808434E4B00246FF4A02506
:102DB800C3F84853C3F84445C3F84441494BD3F8D2
:102DC8004831FBB9484B4FF40034C3F8804119E04F
:102DD800434D0626434B6FF48024C5F80865C3F8B5
:102DE8000843002AE0D1C3F84843C3F84025C3F894
:102DF8004021C3F84425C3F844213A4BD3F848315D
:102E0800002BDFD0374B4FF480360024374DC3F802
:102E18000863C3F84863C3F84041D3F80445041B6A
:102E28002C4252D014F4400F4FD1C3F84005C3F8D8
:102E380044632AB14C68D3F80425A21A2A42FAD06E
:102E480000220126284C4FF480558A70CE60C4F8C1
:102E58008050BFF34F8FBFF36F8F254B4FF0020C9D
:102E68004FF0FF3EC4F8805104270A72486040F2D0
:102E780001405E60C3F808E3C3F84025C3F8402169
:102E8800C3F84425C3F84421C3F84825C3F84821AA
:102E9800C3F84C25C3F84C211E61C3F80425C3F8B8
:102EA80008C5CA68DFF838C0C3F81075DE60C3F813
:102EB8000022104E104B114AC4F88051336025602F
:102EC8001360CCF804750880F8BD064B002240F268
:102ED800EB116C20C3F8402501F08EF9481400214D
:102EE80000F000410010014100E100E0FEFFFF009A
:102EF80000C00041C01101410200008080C00041B3
:102F0800284AF8B517785668022F3DD0864243D034
:102F1800137A002B3BD0244B4FF48035234C0021EF
:102F28004FF0020CC4F808C5C3F80853C3F8485357
:102F3800C3F84011D3F804151D4C411A214202D0A0
:102F480011F4400F08D0184B002240F209216C20E0
:102F5800C3F8402501F050F9C3F84005C3F84453BD
:102F680027B1D3F80415711A2142FAD0506002240F
:102F7800104B40F20241104E104D0C4833602B604C
:102F8800C0F804451180F8BD8642C1D1F8BD40F2B1
:102F9800FD116C2001F030F940F2F9116C2001F0BC
:102FA8002BF900BF481400210010014100F0004136
:102FB800FEFFFF0001000080C01101418CC00041EC
:102FC800F8B53C4C6FF480213B4B2278C3F80813CA
:102FD800002A5BD1C3F84813C3F84025C3F8402141
:102FE800C3F84425C3F84421D3F84831002B5BD1FA
:102FF800324B4FF40031C3F88011022A54D12E4BC2
:103008006168D3F80405033020F07F4081420FD077
:10301800D3F804352A4ACB1A1A404AB113F4400FA0
:1030280006D1FFF7AFFEE368264AC2F80032F8BDC2
:10303800214B254AD3F80435CB1A1A4012B113F4A0
:10304800400308D0012200211346E2601D4AA17006
:10305800C2F80032F8BD616001221A4902251B48F6
:1030680004271B4EC0F8085540F20145A3701346CB
:10307800E2604A60CA60174AC0F804753260C1F855
:103088008020104A2580C2F80032F8BD00216FF474
:10309800A020C3F84803C3F84415C3F84411D3F873
:1030A8004831002BA9D1A3E740F215216C2001F08B
:1030B800A3F800BF481400210010014100E100E01E
:1030C800FCFFFF0000C00041FEFFFF0000F00041D0
:1030D800C011014102000080014B5868704700BFD1
:1030E80048140021014BD3F8040570470010014132
:1030F800F8B50446062C00F28B80DFE804F0292995
:103108002929040404004548057815B14078A042EF
:1031180079D0043C424801250026E4B204F11007A6
:1031280000EB8404BD40C0F80853C0F84853C4F805
:103138004061A2B3D0F80405081A20F07F46B242D5
:1031480002D810F4400F2AD00020C4F84005F8BD7A
:1031580032484568B5F1807F3AD00578022D3FD0D6
:1031680004F1100501202F4E00FA05F5C6F80853A2
:103178000AB306EB84073864D7F84005081A20F02C
:103188007F4700F44000BA4298BF00280CBF0120D6
:10319800002010D004F5A87446F82400F8BD012BCF
:1031A800C4F8401502D11E4BC3F804531C4B012030
:1031B800C3F84453F8BD04F5A8741A4A012B42F821
:1031C800241001D00120F8BDC2F804531846F8BDF8
:1031D800057A002DC1D14FF412716C2001F00CF862
:1031E8004078051F0328EDB206D950350C4E56F825
:1031F80025000028B4D1FAE750300A4E56F820507E
:10320800002DFBD0ACE740F26B216C2000F0F4FFFE
:103218004FF41C716C2000F0EFFF00BF4814002130
:103228000010014100C0004108B506280FD8DFE8AA
:1032380000F00A0A0A0A040404000438064BC0B263
:1032480003EB800008BD054B03EB800008BD4FF47D
:1032580025716C2000F0D0FFC0110141C0C10041B0
:1032680070B582B0062873D8DFE800F02B2B2B2B23
:1032780004040400394A031F1178DBB211B15478F1
:10328800844233D0364A03F11000012102EB830453
:1032980081403448C2F80813C2F84813D4F84015DE
:1032A800D2F804258A1A104020B10022C4F840251B
:1032B800C4F840212C4A52F823300193019B02B0F4
:1032C80070BD00F11002294C01230021284D9340C4
:1032D80004EB8002C4F80833C2F84015C2F8401164
:1032E80055F820300093009B02B070BD2148062499
:1032F8000129C0F8084505D000204FF080711070F2
:103308005160BFE71C4C4FF48055C4F88050BFF3A0
:103318004F8FBFF36F8F4FF0FF36C4F88051A0F581
:103328004050002441601472C0F80863C0F840455A
:10333800C0F84041C0F84445C0F84441C0F8484589
:10334800C0F84841C0F84C45C0F84C410161D3E78A
:1033580040F2E9216C2000F04FFF00BF4814002123
:1033680000100141FEFFFF004011014100C0004173
:1033780040C1004100F0004100E100E0204A6FF444
:103388008021204B1278C3F8081322BBC3F84813D6
:10339800C3F84025C3F84021C3F84425C3F84421A5
:1033A800184BD3F8483123B3174B00224FF0FF31A5
:1033B800C3F80813C3F84025C3F84021C3F84425CF
:1033C800C3F84421C3F84825C3F84821C3F84C255D
:1033D800C3F84C21704700226FF4A021C3F84813AA
:1033E800C3F84425C3F84421064BD3F84831002BD1
:1033F800DAD1064B4FF40032C3F88021D4E700BF7E
:10340800481400210010014100C0004100E100E023
:10341800074B93F91030002B09DB5A09012103F0FF
:103428001F030448403201FA03F340F82230704782
:103438004814002100E100E043F60952C0F30803F4
:10344800400A02FB03F302FB00F003F5807300EB74
:103458005320704730B448F23763440B43F609559C
:1034680003FB04F30E4C1B0C05FB13005B0204FB6F
:1034780000F440020B6000F58070630D05FB13003B
:10348800400A1070086803440B6092F900301F2B43
:1034980004D1002313700B6801330B6030BC7047F4
:1034A8006F0C0100374BD3F80423D00310B502D5B5
:1034B800D3F8402172BB334BD3F80423910303D5CF
:1034C800D3F84421002A41D12E4BD3F804235203C8
:1034D80002D5D3F8482102B910BD2B4A00244FF475
:1034E80000302A49C3F84841C2F88001D3F848257A
:1034F800D3F80435D31A194011B113F4400FEBD0A7
:10350800204B4FF480220620C3F80823BDE8104062
:10351800FEF7C6BE1C4A00244FF400301B49C3F80E
:103528004041C2F88001D3F84025D3F80435D31AB6
:10353800194011B113F4400FBDD0124B4FF4803233
:103548000420C3F80823FEF7ABFEB4E70E4A0024B4
:103558004FF400300D49C3F84441C2F88001D3F854
:103568004425D3F80435D31A194011B113F4400F88
:10357800AAD0044B4FF400320520C3F80823FEF705
:103588008FFEA1E70010014100E100E0FEFFFF000F
:10359800F0B5594C85B0A378042B32D023785BB1B1
:1035A800012B00F0A280237A002B00F0A0800223D8
:1035B80060782370FFF754FE504BD3F804231503AB
:1035C80002D5D3F84C2112BB4C4BD3F8042350033B
:1035D80003D5D3F84821002A34D1484BD3F8042323
:1035E800910303D5D3F84421002A46D1434BD3F89D
:1035F8000423D20303D5D3F84021002A58D105B0BB
:10360800F0BD072005B0BDE8F040FEF749BE002236
:103618004FF400203A4D4FF48051C3F808030320BB
:10362800C3F84C25C3F84C212A68364B0092009AFF
:10363800C3F88011FEF734FE304BD3F8042350034F
:10364800CBD5C6E700224FF480202F4D4FF4805190
:10365800C3F808030220C3F84825C3F848212A689C
:10366800284B0192019AC3F88011FEF719FE234BEB
:10367800D3F804239103B9D5B4E700224FF40030FE
:10368800224D4FF48051C3F808030120C3F84425A4
:10369800C3F844212A681B4B0292029AC3F880118E
:1036A800FEF7FEFD154BD3F80423D203A7D5A2E7F6
:1036B80000224FF4803116484FF48056C3F808139F
:1036C8000421C3F84025C3F8402100680D4D03903C
:1036D8001046039FE260C5F88061A170C3F800221C
:1036E80005B0BDE8F040FEF7DBBD23725FE740F2AE
:1036F800C7316C2000F080FD4814002100C0004153
:103708004CC1004100E100E048C1004144C1004112
:1037180040C10041FEF74ABF054BD3F80C24D3F84B
:103728000C0410F4803018BF02F00100704700BF8D
:1037380000500041014B5888704700BF5C140021BD
:1037480010B5EFF3108472B6064A13790133DBB271
:1037580013711379012B01D100F032FA04B962B662
:1037680010BD00BF5C14002170B50B4C26785EB903
:103778000125A0602570FFF7E3FF00F03DFA28B9A6
:10378800064B2573C3F80453002070BDA368002BB3
:10379800FAD09847A660F7E75C1400210050004172
:1037A80008B5FFF7CDFF00F027FA084B38B1084AF3
:1037B8000121116004225A7300229A7308BD032262
:1037C80001215A73034AC2F80413F5E75C14002177
:1037D800105000410050004138B5124CE37BC3B192
:1037E800012B03D0A27B013B9A4212DA00F004FAC3
:1037F800054600F043FDE37B012B82BFA37B013329
:10380800A37355B12369C31A0133022B09D935B102
:103818002061BDE83840FFF7C3BF6369F3E7606123
:10382800F7E738BD5C14002110B5EFF3108472B6C9
:103838000A4B1A7922B940F20D116D2000F0DCFC18
:103848001A79013AD2B21A711A791AB91B7E0BB9D0
:1038580000F0BCF904B962B610BD00BF5C140021C9
:1038680008B5054B1A7822B100221A731A70FFF7AF
:10387800DBFF002008BD00BF5C140021EFF31081BE
:1038880072B6044A137E0133DBB2137601B962B60D
:10389800704700BF5C14002110B5EFF3108472B6B6
:1038A8000A4B1A7E22B940F225116D2000F0A4FCC3
:1038B8001A7E013AD2B21A761A791AB91B7E0BB956
:1038C80000F084F904B962B610BD00BF5C14002191
:1038D800024B587B003018BF012070475C14002150
:1038E80070B5194D6B7E2C467BB9E86900F0030072
:1038F80000F0A8F948B100F0A1FA30B9EFF310834D
:1039080072B66A7B12B103B962B670BD01226A73DE
:1039180003B962B600230D4A0D4D8026C5F8086329
:10392800136084F82030FFF73BFF94F8442002210D
:10393800084B094853436362084B236300F084FA39
:10394800C5F80463E1E700BF5C1400211C51004185
:103958000050004190D0030080140021E13700019D
:10396800F8B5244C94F84530002B42D0224B1E6801
:1039780004331F6856B10122C3F80422237B2BB1FC
:103988000025A36825730BB19847A5603FB11B4B71
:1039980000221A600222C3F80422FFF7A1FF184B85
:1039A8001A6894F82050EDB23EB1617B032904D126
:1039B800042101206173134908606AB100221A606A
:1039C800637B042B04D04FF4DE716D2000F014FCEF
:1039D80002236373FFF728FF5DB1002384F82030CA
:1039E800637B022B01D1FFF7DBFEBDE8F840FFF750
:1039F8001BBFF8BD5C140021005100410451004177
:103A08001C5100411050004110B5044CE06900F011
:103A1800030000F017F90028F8D010BD5C1400214D
:103A2800F8B5054660B10278022A09D8437852B938
:103A3800013B1F2B04D88378212B01D8012B07D1F8
:103A48006FF0150065E0002BFAD18378002BF7D1D1
:103A5800534B2022C3F88020BFF34F8FBFF36F8FE3
:103A6800C3F880214FF0FF324E4B4F4CC3F8082368
:103A780000234E4A13605360D3612371AB8863807F
:103A880000F0C8F810B1012323702371FFF744FE3A
:103A980008B100F0ABF80123AA786978E3612B78C4
:103AA800E2730022012B637684F84410A27307D0D6
:103AB80043B1022B2ED04FF44C716D2000F09CFBCB
:103AC8000223E36100F0AEF888B300F0B3F8E369CD
:103AD80003F0030398422AD1AB791BBBFFF794FF8D
:103AE800E37B63B12B7853B900F086F8054600F004
:103AF800C5FB6FF00043002D4FD0C4E90403012338
:103B08002022002084F84530254B6073C3F88021BB
:103B18001A60F8BDFFF714FEFFF7FEFD0028FBD082
:103B28000323CEE71F4B0222C3F80423D8E7012161
:103B380000221F4B1F4E196032601A4A207FC2F8BC
:103B480018051D4801600221C2F80413A97900294B
:103B5800C6D1D2F80423930702D440F2F121ACE78E
:103B6800164A1769116907F0100741F01001116131
:103B780033687BB1FFF748FF27B9104A136923F070
:103B880010031361074B0222C3F808230022C3F86D
:103B98000421A5E716F008FEEAE7C4E90430AEE719
:103BA80000E100E0005000415C1400210051004198
:103BB8000C500041045100410850004100ED00E064
:103BC800014B01221A60704700500041044B01224A
:103BD8001A600023034A1360034A1370704700BF3A
:103BE8000450004100510041A2140021014B012260
:103BF8001A707047A2140021044B1B6823B9044BA8
:103C0800187800F0010070470120FAE700510041E0
:103C1800A2140021024BD3F8080400F001007047F9
:103C280000500041024BD3F8140400F00100704723
:103C380000500041024BD3F81C0400F00300704709
:103C480000500041084BD3F81824D3F8183413F463
:103C5800803306D002F00303C0B21B1A5842584101
:103C680070471846704700BF00500041BFF35F8F90
:103C7800024A137803F0FE0313707047A41400215E
:103C8800064B1A78D20707D41A7842F001021A7044
:103C9800BFF35F8F0120704700207047A4140021F4
:103CA80008B5FEF765FD0A4B5B685B69181A0002E8
:103CB800B0F5407F04DB1846BDE80840FEF732BD8A
:103CC800FFF7D4FFFEF7E6FABDE8084000F030BB86
:103CD800A4140021104A536870B4154623B9C3616F
:103CE800506070BCFFF7DCBF46691A460024516972
:103CF800711A0902FF3109DBD169144621B9E36958
:103D0800C361E06170BC70470A46F0E79342F6D1A0
:103D1800C3616860E5E700BFA4140021074A53683F
:103D2800834203D1DB6953607047134623B1DA69D4
:103D38009042FAD1C269DA61704700BFA414002129
:103D48002DE9F843FEF714FD3A4905464C688946C3
:103D5800002C6CD0FFF794FF804630B9E81C20F0A7
:103D68007F40BDE8F843FEF7DDBC4B685869401B4F
:103D78000002B0F5407F22DA2F4E2046FFF7CEFF33
:103D8800277C0FB36369013F002503F5800327747F
:103D980023F07F436361FFF79DFFD9F8044054B1D6
:103DA800FEF7E6FC6369181A0002B0F5407F37DBBE
:103DB8001846FEF7B7FCBDE8F843FFF757BFFFF713
:103DC80055FF4B685869CCE7A069C8B1B042217A61
:103DD8001DD9B0FBF6F506FB1505002D08BF3546C5
:103DE800284616F0ADFC6369184420F07F406061F6
:103DF800A069401BB0FBF6F020742046FFF76AFF6D
:103E0800FFF734FFE368204645469847C5E716F0B4
:103E180097FC63692774184420F07F406061ECE7E1
:103E2800002DAAD0FEF736FA00F082FAC3E7BDE803
:103E3800F88300BFA41400210020A1070148FEF761
:103E480059BC00BF493D00012DE9F04105468846AF
:103E5800FFF716FF002874D0E5B13B4B5F68AFB998
:103E680010223946A81800F045FBFEF781FCB8F18E
:103E7800010F064614D0B8F1000F46D0B8F1020F72
:103E880043D04FF4B2716E2000F0B6F9BD4201D0B4
:103E9800FF69E4E7FFF7EAFE6FF01500BDE8F0817F
:103EA8002868DFF8A8804045F4D8297A16F048FC3D
:103EB800801B03021FD43046FFF7BEFA2C688442E9
:103EC80038BF4444241ADFF88880444528D9297A21
:103ED800B4FBF8F708FB1747002F08BF4746E41B59
:103EE800384616F02DFC3044B4FBF8F420F07F403F
:103EF8002C74686102E026F07F466E612846FFF761
:103F0800E9FEFFF7B3FE0020C8E72B7A2C6883B1DF
:103F18003D2C11D8B8F1020F4FF03F0400D1AC612D
:103F2800297A204616F00CFC304420F07F40686166
:103F3800E4E75D2C38BF5D24B8F1020FC3D1AC6152
:103F4800C1E76FF02200A9E7A4140021E17F841ED5
:103F58000020A107094B01225A604FF0FF32C3F835
:103F680008234FF48032064BC3F88020BFF34F8FED
:103F7800BFF36F8FC3F88021704700BF0000014175
:103F880000E100E038B57D4D00240123C5F8FC4F61
:103F9800C5F8FC3F00F010FA002800F0E380A723E2
:103FA8002C606C602246AC604FF0FF31EC602C61F5
:103FB8006C61AC61EC612C626C62AC62EC622C638B
:103FC800C5F88040C5F88440C5F88840C5F88C40DD
:103FD800C5F89040C5F89440C5F89840C5F89C408D
:103FE800C5F8A040C5F8A440C5F8A840C5F8AC403D
:103FF800C5F8B040C5F80041C5F80441C5F8084106
:10400800C5F80C41C5F81041C5F81441C5F8184168
:10401800C5F81C41C5F82841C5F83041C5F83441F8
:10402800C5F83841C5F83C41C5F84041C5F8444198
:10403800C5F84841C5F84C41C5F85041C5F8544148
:10404800C5F85841C5F85C41C5F86C41C5F87041E0
:10405800C5F88041C5F88441C5F88841C5F88C4148
:10406800C5F89041C5F89441C5F89841C5F89C41F8
:10407800C5F8A841C5F8B041C5F8B441C5F8B8417C
:10408800C5F8BC41C5F8C041C5F8C441C5F8C84128
:10409800C5F8CC41C5F8D041C5F8D441C5F8D841D8
:1040A800C5F8DC41C5F8EC41C5F8F041C5F8004257
:1040B800C5F80443C5F80843C5F80445C5F80845DC
:1040C800C5F80C45C5F81045C5F81445C5F8184598
:1040D800C5F81C45C5F82045C5F82445C5F8284548
:1040E800C5F82C45C5F83045C5F83445C5F83845F8
:1040F800C5F83C45C5F84445C5F85445C5F860457C
:10410800C5F84046C5F84446C5F84846C5F850467F
:10411800C5F860361A4BC5F86446C5F86C364FF4D6
:104128002053C5F80049C5F80439164BC5F81039AD
:104138004FF48053C5F81449C5F82849C5F82C49E7
:10414800C5F85049C5F85439A300013403F1824336
:10415800082C03F50043C3F80026C3F82026C3F84B
:104168003019F1D1084B4FF48072C3F88020BFF3A7
:104178004F8FBFF36F8FC3F8802138BD0080004197
:1041880000002D058232020000E100E070B5184DF4
:1041980006460C462B783BBB164B6A60002808BFC6
:1041A8001E462972FFF7EEFEFFF7D4FE3046FFF7F2
:1041B80037FC0646B0B9FDF70DF8FFF791FB16F08E
:1041C80088FA002C0CDB04F01F0264090123A40008
:1041D800934004F1604404F56144C4F880312360DD
:1041E80001232B70304670BD4FF0FF36FAE700BF51
:1041F800AC1400212CA002017FB5124B5D6885B973
:10420800FEE7B4FBF6F4D3B20132002CF9D104AACC
:104218001A4402F80C4C0A223BB901A8A84704B07A
:1042280070BD044600220A26EDE7013B04ACDBB270
:10423800E618B0FBF2F402FB1400303006F80C0C60
:104248002046E9E7AC140021074B93F90830002B0E
:1042580009DB5A09012103F01F03403201FA03F375
:10426800024941F822307047AC14002100E100E017
:10427800014B1878704700BFAC1400211B4B4FF45A
:10428800803170B5C3F88010BFF34F8FBFF36F8FC5
:10429800174D0020174CC5F80001C3F88011266996
:1042A800216906F0100641F0100121610121C5F8CD
:1042B80004132960D5F80031A3B11EB9236923F08E
:1042C800100323610A4B0122D3F808055A60C3F88A
:1042D80008230022C3F800214FF48032034BC3F8AF
:1042E800802170BD16F060FAE4E700BF00E100E04D
:1042F8000000014100ED00E038B50C490523013B01
:10430800DBB2FF2B03D14B216920FFF775FF01EBCF
:10431800C302157905F0FF04002DF0D141F83300F0
:104328000121547118469471117138BDB8140021D7
:10433800042808B503D95A216920FFF75DFF094B06
:1043480003EBC0000379012B01D05B21F4E743792B
:1043580082790133DBB29A4218BF4371BDE8084045
:10436800FFF772BFB814002170B50625114C00265E
:10437800013D15F0FF0500D170BD94F8281004EB3D
:10438800C1031A79012A09D158799A79904205D03E
:104398005A79D2B29A7154F83130984794F8283043
:1043A8000133DBB2042B94BF84F8283084F82860EA
:1043B800DEE700BFB8140021024B1868831E58427C
:1043C800584170473401FF01004870470007084111
:1043D800AAB1012A70B40D7806780DD0B5420BD178
:1043E800044601E0AE4207D114F8016F11F8015FED
:1043F800E3431344D842F5D1701B70BC7047104694
:10440800704700BF81EA00032DE9F0419F075CD1A6
:1044180086075ED0002A56D0034601E0002A52D013
:1044280011F8014B013A03F8014B9D07F6D1032A15
:1044380028D941EA0305A2F1040C6C074BD1BCF161
:104448002B0F48D94FEA9C0CA1F108051C460CF12A
:1044580001084FEA580E03EBCE0EF5E90267E4E8CF
:1044680002677445F9D128F00104A04503D051F83A
:10447800245043F824500CF1010402F00302A40074
:1044880023442144FAB1541E022C20D922F00307F8
:104498000C461D460F4454F8046BBC4245F8046BA7
:1044A800F9D122F00304A24223442144A2EB0405DB
:1044B80009D00A78012D1A7005D04A78022D5A7051
:1044C80001D08A789A70BDE8F0810346DAE715468C
:1044D800EFE70346ABE74FEA9C0C1D1F0C460CF1B7
:1044E800010701EB870754F8046BBC4245F8046FD9
:1044F800F9D1C0E78307C9B268D0002A6BD0034658
:1045080001E0002A67D003F8011B13F0030F02F142
:10451800FF32F6D12DE9F043032A41EA012545EAA5
:10452800054547D9A2F10408C3F380044FEA980768
:10453800B8F1170F07F101074AD99946002C43D063
:1045480049F8045BA7EB040E03EB84044FEA5E060C
:1045580004EBC606C4E900550834A642FAD12EF089
:10456800010CCCEB8C76E64509EB8C0408EB86064F
:104578001CD0A6F1040C2560BCF1030F16D9A6F1D6
:10458800080C6560BCF1030F10D9A6F10C0CA560EE
:10459800BCF1030F0AD9A6F1100CE560BCF1030FBA
:1045A80004D9143E2561032E88BF656102F0030219
:1045B80003EB870332B1013A197003D0012A59700D
:1045C80018BF9970BDE8F0839046BBE70346A1E7A2
:1045D8001C461646CDE7704738B50E4C237803F0D5
:1045E800FF05B3B96378012B06D1022363706368B2
:1045F80013B16368984765606378032B09D1002578
:10460800657063682BB1A3685B69984763689847CE
:10461800656038BDE4140021042873B5064604D942
:104628004FF489716820FFF7E7FD0E4C0125FFF76D
:10463800D3FF25706378022B11D1A3683046DB685D
:1046480098478DF8056004EB46035A7C824201A81E
:1046580028BF1D7CA3688DF804501B68984702B0DA
:1046680070BD00BFE414002110B520B940F2271135
:104678006820FFF7C1FD074B5A78022A1A4602D074
:104688005B78032B04D19368BDE810405B6818473A
:1046980010BD00BFE414002110B5084C6378022B4C
:1046A80002D06378032B02D1A3689B689847002344
:1046B8002370BDE81040FFF78FBF00BFE41400214E
:1046C800064B5A78022A1A4602D05B78032B02D18D
:1046D80093681B6918470020704700BFE414002145
:1046E800064B5A78022A1A4602D05B78032B02D16D
:1046F80093689B6918470020704700BFE4140021A5
:10470800024B5878003018BF01207047E41400218C
:10471800014B1870704700BF591500212DE9F34768
:10472800C41C264DB1F100084FF00002AB7824F00C
:10473800030406466978009308BF20462B7818BF03
:10474800104600F0A3FDA978044439B1B8F1000F70
:104758000CBF2046002001F077F804442F784FF072
:10476800000A6B78D1461F44FFB25FFA8AF39F4272
:1047780013D80334B8F1000F4A46394624F003042D
:1047880014BF0020204600F0AFFE2044073020F080
:104798000700801B02B0BDE8F087AB790AF1010A77
:1047A8006A79022B2979E87838BF0223032A38BFAF
:1047B800032217F0B9FC8144D7E700BF00000021AD
:1047C8001FB572B6174B1D68DDB9BFF34F8F164979
:1047D800164BCA6802F4E0621343CB60BFF34F8FF5
:1047E80000BFFDE7B4FBF6F4D3B20132002CF9D1D7
:1047F80004AA1A4402F80C4C0A2233B901A8A847A3
:10480800E3E7044600220A26EEE7013B04ACDBB2EC
:10481800E618B0FBF2F402FB1400303006F80C0C7A
:104828002046EAE7D005002100ED00E00400FA0583
:104838001FB5184C02A8A379022B38BF02238DF8A4
:1048480009306379032B38BF03238DF808302379A7
:10485800ADF80C30E378ADF80A3013F0A7FE18B1C4
:104868009F210320FFF7ACFFA36801A8019313F071
:10487800B5FE08B1A321F4E79DF80030684643F07F
:1048880001038DF8003018F089FC08B1A721E8E78A
:1048980004B010BD0000002110B5044698B3FFF71E
:1048A800E7FC10B94FF0FF3010BDFEF743FFB0F53D
:1048B800FA7FF7D80023154A32F82310814218D31B
:1048C80002EB83039A78124B12481A711C6000F0AD
:1048D8002DFAEFF3108472B60F486FF00C0101F057
:1048E80087F80E4801F000FD40B1B5210320FFF71D
:1048F80067FF01330C2BDFD10022E4E7002CD3D172
:1049080062B62046D0E76FF01500CDE778A0020127
:10491800D00500213948000100600040D94A000153
:1049280008B510B16FF02C0016E0174B5B792BBB64
:1049380059B132B301390429F4D8DFE801F0030E84
:1049480012171B001278114B1A7001210020FFF773
:10495800E5FEB0F5803FE5DA08BD12780B4B5A70DA
:10496800F3E71068094BC3F80300EEE71268074B3A
:104978009A60EAE71278054B9A70E6E74FF0FF3045
:10498800EAE76FF01500E7E7D005002100000021F5
:1049980037B50D460446F8B1F1B100F0F1F8F0B1C1
:1049A8002046104CFFF7A8FC0021A0712846FFF70D
:1049B800B5FE13F0B5FF0021A07913F053FF23795A
:1049C80001A88DF8043017F08BFFFFF731FF0123A2
:1049D8000020637103B030BD6FF01500FAE74FF0A7
:1049E800FF30F7E7D005002150B1074B03F114025F
:1049F80053F8041B934240F8041BF9D10020704778
:104A08006FF01500704700BFA8A00201054B10B554
:104A18005C791CB913F0C0FE204610BD4FF0FF3082
:104A2800FBE700BFD0050021054B10B55C791CB928
:104A380013F0C6FE204610BD4FF0FF30FBE700BF65
:104A4800D0050021054B10B55C791CB913F0DAFECE
:104A5800204610BD4FF0FF30FBE700BFD005002116
:104A6800054B10B55C791CB913F0E0FE204610BD6B
:104A78004FF0FF30FBE700BFD0050021054B10B514
:104A88005C791CB913F0ECFD204610BD4FF0FF30E7
:104A9800FBE700BFD0050021054B10B55C791CB9B8
:104AA80018F08AFB204610BD4FF0FF30FBE700BF2F
:104AB800D0050021054B10B55C791CB918F086FBB0
:104AC800204610BD4FF0FF30FBE700BFD0050021A6
:104AD80037B5114C256801A801F02CF8034618B128
:104AE800052816D035210BE0019A022A05D0032AA1
:104AF800F1D1226852B92D2102E022681AB9282181
:104B08000420FFF75DFE2360A847E4E72360012047
:104B1800FAE703B030BD00BFD805002107C8024B33
:104B280083E8070000207047DC050021054B5B681F
:104B380010B51BB97D210420FFF742FEBDE81040E7
:104B4800184700BFD8050021054B9B6810B51BB955
:104B580083210420FFF734FEBDE81040184700BF4A
:104B6800D8050021054BDB6810B51BB98921042045
:104B7800FFF726FEBDE81040184700BFD805002102
:104B8800044B586828B1986818B1D868003018BF25
:104B980001207047D805002138B505460C4600F0BD
:104BA8007FF870B13E2D0CD1122C05D1054B1A7827
:104BB800022A01D0587820B12046BDE8384000F0DC
:104BC800A7B838BDE8050021014B5870704700BFF1
:104BD800E80500212DE9F341264C0646A04604F5D8
:104BE8008277A37893B12279304623490232FFF7BE
:104BF80009FC0023A370B1783078FFF7CDFF054694
:104C08000028EED0284602B0BDE8F081384613F0FF
:104C1800F1FC78B194F80431142B0DD10A213E200F
:104C2800FFF7BAFF40B93946304615F04BFE80B25F
:104C38000028E0D10025E5E798F804310A2B13D1C4
:104C480005213E20FFF7A8FF054668B9B8F80831E6
:104C580001A96846ADF8003016F0A8F90028D1D0AF
:104C680097210820FFF7ACFD3946304615F07DFE48
:104C7800DDE700BFE8050021EB050021064B4FF0FA
:104C8800FF3141F6FF72C3E90012044A00211160A6
:104C98001F229A60704700BF100000210C080021F5
:104CA8003F280ED820280B4B03D80138C0B21B6808
:104CB80002E021385B68C0B223FA00F000F001007E
:104CC8007047FF2803D04038034BC0B2EFE70120FC
:104CD800704700BF100000210C08002143680268DB
:104CE80043F01073034942F48C2243F4FF630A60D3
:104CF8004B607047100000210268014B1A60704732
:104D08000C0800210268014B9A60704710000021CE
:104D18000138C3B201209840034B9B68184214BF66
:104D280001200020704700BF10000021014B1860CF
:104D3800704700BF1008002110B5FFF79FFF002043
:104D4800FFF742FF17F0B1FC034B04461B6803B1A1
:104D58009847204610BD00BF1008002138B5264CE2
:104D68000546D4F8A432013306D1D4F8A8324FF658
:104D7800FF729BB293423DD0D4F8A032DB0739D5FD
:104D8800D4F8A432C5F80130D4F8A832A5F8053013
:104D9800AB7963F03F03AB71D4F89032013323D081
:104DA800D4F8943201331FD0D4F8983201331BD091
:104DB800D4F89C32013317D0002001F097FB98B942
:104DC800D4F89032C5F80730D4F89432C5F80B30CF
:104DD800D4F89832C5F80F30D4F89C32C5F813309F
:104DE80001232B70002038BD10220021E81DFFF799
:104DF80081FBF5E70023F4E70000FF0110B510225E
:104E080000210446FFF776FB10220021A018FFF7C7
:104E180071FB224BD3F8802201320BD1D3F88422C4
:104E2800013207D1D3F88822013203D1D3F88C227A
:104E380001320BD0D3F880222261D3F88422626138
:104E4800D3F88822A261D3F88C32E361002001F004
:104E58004DFB124B18B9D3F8A022D2071CD4D3F8B3
:104E6800902201320BD1D3F89422013207D1D3F822
:104E78009822013203D1D3F89C3201330CD0074B6E
:104E8800D3F890222260D3F894226260D3F8982253
:104E9800A260D3F89C32E360002010BD0000FF013F
:104EA80080B588B000AF786039603B681B88BB83E9
:104EB800BB8BC3F30E037B837B681B7F184616F0FE
:104EC8009DF803463B837B681A883B8B1344FB821F
:104ED8007B6824333B617B8B3A691344FB603B8BD3
:104EE800FA68128892B21A44FB8A13445A1EFB8A43
:104EF80092FBF3F39BB2FA8A02FB03F37B817A8B72
:104F08007B891344FB837B685B88FA8B9A420AD2BD
:104F1800B7F91C200A4B13401AB2B7F91E301343D5
:104F28001BB2FB8305E0BB8BDB439AB2044B1340F7
:104F3800FB833B68FA8B1A8000BF2037BD4680BDD3
:104F48000080FFFF80B483B000AF0346FB71FB799C
:104F5800064A32F8133003339BB223F003039BB2A3
:104F680018460C37BD4680BC704700BFD4A002016C
:104F780080B483B000AF0023FB710023BB710D4BDD
:104F88001A78FB791344FB710A4B5A78FB7913445E
:104F9800FB71084B9A78BB791344BB71FA79BB79DA
:104FA800934238BF1346DBB218460C37BD4680BC67
:104FB800704700BF1408002180B588B000AFF860C2
:104FC8000B467A60FB72FB68002B0CBF01230023A1
:104FD800FB77FB7F002B01D0002301E007F10C03D6
:104FE800BB617968B86916F024FE7861FB7F83F0AD
:104FF8000103DBB2002B05D0FB7AFA6804499B0059
:105008000B445A607B6918462037BD4680BD00BFF7
:105018001408002180B586B000AF78600B46FB709D
:105028000023FB7529E07B681B68033323F0030327
:105038001A467B681A60FB7D1846FFF783FF034614
:105048001946FB7D104AD35C03FB01F33B61FB78F7
:10505800002B01D0002301E07B681B68F97D3A69C9
:105068001846FFF7A9FFF8607B681A68FB681A44BE
:105078007B681A60FB7D0133FB75FB7D022BD2D95F
:1050880000BF1837BD4680BD1408002180B485B024
:1050980000AF78600B46FB701346BB700023FB73B0
:1050A80032E07B681B68033323F003031A467B68EE
:1050B8001A60BB7883F00103DBB2002B1AD0FB7BAC
:1050C8007A6812681449043341F823200023BB731B
:1050D8000CE0FB7B104A043352F82320BB7B9B0077
:1050E800134400221A60BB7B0133BB73BA7BFB7885
:1050F8009A42EED37B681A68FB789B001A447B6857
:105108001A60FB7B0133FB73FB7B022BC9D900BF01
:105118001437BD4680BC70471408002180B485B0A0
:1051280000AF0346FB710023FB81FB79012B02D101
:10513800134B1B78FB810023BB8113E0BA89FB89E1
:1051480013447B81FB790E4A043352F823207B8970
:105158009B0013441B68002B01D17B890BE0BB89A2
:105168000133BB81FB79064AD35C9BB2BA899A4268
:10517800E4D34FF6FF7318461437BD4680BC70471A
:105188001408002190B585B000AF03463A60FB8053
:105198000B467B710023FB60FB88184616F017FE50
:1051A8000346002B04D14FF484711720FFF708FB46
:1051B8007B79244A043352F82320FB889B0013444C
:1051C8001B68002B04D040F209111720FFF7F8FAEA
:1051D8007B791C4A9B0013445B68002B01D1002398
:1051E8002CE07B79174A9B0013445C687B7918464E
:1051F800FFF7A8FE03461946204616F066FDF8603C
:10520800FB68002B19D07B790E4A043352F823200F
:10521800FB889B001344FA681A607B79022B04D937
:105228004FF48A711720FFF7CBFA7B79064A52F8B8
:105238002330F8883A68F9689847FB6818461437A5
:10524800BD4690BD14080021BCA0020180B582B003
:1052580000AF03460A46FB8013467B71FB8818465D
:1052680016F0B5FD0346002B09D07B79064A0433B6
:1052780052F82320FB889B0013441B6800E000239E
:1052880018460837BD4680BD1408002180B584B093
:1052980000AF7860084611461A460346FB700B4675
:1052A800BB7013467B70FA787B781344FF2B04D9C4
:1052B80040F237111720FFF783FABA787B789A42C1
:1052C80004D94FF49C711720FFF77AFA7B68BB600A
:1052D800FA787B781344FB73FA7B3B7E934238BFA2
:1052E8001346BB737B68002B0CBF012300237B7321
:1052F8007B68033323F003027B689A4204D040F2B0
:105308003F111720FFF75CFA0E4A7B7813700D4A9D
:10531800FB7853700B4A3B7E93707A7B07F1080346
:1053280011461846FFF776FE7A7BB97B07F108032A
:105338001846FFF7ABFEBA687B68D31A18461037D1
:10534800BD4680BD1408002180B582B000AF034679
:10535800FB71FB79022B04D940F26B111720FFF780
:105368002FFAFB79024AD35C18460837BD4680BD40
:105378001408002190B585B000AF03460A46FB80AB
:1053880013467B71FB884FF6FF72934202D143F2BA
:10539800020333E07B79022B01D907232EE07A79C7
:1053A800FB8811461846FFF751FFF860FB68002B91
:1053B80022D07B79134A52F82330FA88F9681046CC
:1053C80098477B79104A043352F82320FB889B00C6
:1053D800134400221A607B790B4A9B0013445C68D3
:1053E8007B791846FFF7AEFD03461A46F968204652
:1053F80016F0C8FC002301E043F2020318461437F4
:10540800BD4690BDC8A002011408002180B584B033
:1054180000AF7860786816F0AFFE0346002B01D025
:10542800102336E07B681B787B73FFF7A1FD0346EA
:105438003B737B685B88FB8122E07B7B174A0433E4
:1054480052F82320FB899B0013441B68002B14D0BF
:10545800FB8901339AB27B685A807B68FA899A8003
:105468007B7B0E4A043352F82320FB899B001344AC
:105478001A687B689A6000230BE0FB890133FB8183
:105488003B7B9BB2FA899A42D7D37B68FA895A80C8
:10549800052318461037BD4680BD00BF14080021FB
:1054A80080B483B000AF0023FB710023FB710DE0D3
:1054B8000C4B1B685A68FB799B0013441B68002B34
:1054C80001D0002309E0FB790133FB71054B1B6810
:1054D8001B7AFA799A42EBD3012318460C37BD465A
:1054E80080BC70473008002180B586B000AFF860F6
:1054F8000B467A60FB7200237B61FB68002B0CBFB4
:1055080001230023FB74FB68033323F00302FB68C9
:105518009A4203D086211820FFF752F9FB7A002B14
:1055280036D07968002016F084FB78617B690C33EB
:105538007B61FB7A9B007A6913447B61FB7C83F077
:105548000103DBB2002B23D0144AFB681360134B12
:105558001B68FA7A1A72114B1B68FA680C325A6087
:105568000E4B1B685968FB7A9A000C4B1B680A445F
:105578001A600A4B1B685868FB7A9B001A46002180
:10558800FEF7B8FF054B1B687968184616F051FB03
:105598007B6918461837BD4680BD00BF300800211A
:1055A80090B589B002AF0446084611461A4623460C
:1055B800FB800346BB800B467B8013463B803A4BFF
:1055C8001B68002B03D1A5211820FFF7F9F8364BEB
:1055D8001B681B7A9BB2FA889A4208D2324B1B6826
:1055E8005A68FB889B0013441B68002B02D043F2C7
:1055F800020354E03A88BB881146184616F05AFD53
:105608000346FB823A8D7B881146184616F068FDE2
:105618000346BB82FB8ABA8A1146184616F076FD05
:1056280003467B82204B1B681B687A8A1146184602
:1056380016F04BFBF860FB68002B01D104232EE029
:10564800BA8A7B8A1946F86816F008FDF86816F0D9
:1056580018FD7A88B98A3B8D0093012316F0A2FCC5
:10566800F86816F019FDBA88F98A3B880093012377
:1056780016F0C6FCF86816F004FD0446F86816F043
:105688000BFD03461946204615F069FD064B1B68BD
:105698005A68FB889B001344FA681A60002318466E
:1056A8001C37BD4690BD00BF3008002180B584B0CE
:1056B80000AF0346FB80224B1B68002B03D1C82197
:1056C8001820FFF77DF81E4B1B681B7A9BB2FA88DF
:1056D8009A4208D21A4B1B685A68FB889B001344ED
:1056E8001B68002B02D143F2020324E0144B1B6811
:1056F8005A68FB889B0013441B68FB60104B1B68AF
:105708005A68FB889B00134400221A600C4B1B68E4
:105718001868FB685B881A46F96816F033FBFFF7D0
:10572800BFFE0346002B05D0054B1B681B681846B7
:1057380016F0ABFA002318461037BD4680BD00BFEF
:105748003008002180B582B000AF0C4B1B68002BDD
:1057580010D00023FB7107E0FB799BB21846FFF7D6
:10576800A5FFFB790133FB71044B1B681B7AFA799F
:105778009A42F1D300BF0837BD4680BD30080021EA
:1057880080B584B000AF0346FB800023FB60144B58
:105798001B68002B03D1EE211820FFF711F8104BDE
:1057A8001B681B7A9BB2FA889A4213D20C4B1B686F
:1057B8005A68FB889B0013441B68002B0AD0084BCF
:1057C8001B685A68FB889B0013441B68184616F030
:1057D80058FCF860FB6818461037BD4680BD00BF0E
:1057E8003008002180B584B000AF0346FB80002359
:1057F800FB60144B1B68002B03D1FC211820FEF71B
:10580800DFFF104B1B681B7A9BB2FA889A4213D2AF
:105818000C4B1B685A68FB889B0013441B68002BC1
:105828000AD0084B1B685A68FB889B0013441B6806
:10583800184616F031FCF860FB6818461037BD466C
:1058480080BD00BF3008002180B586B000AF786009
:105858000B46FB707B68002B0CBF01230023FB75F4
:10586800FB7D002B01D0002300E03B1D3B61FA7853
:1058780013461B0113445B011946386916F0D9F920
:10588800F860FB7D83F00103DBB2002B1ED0786843
:10589800FA7813461B0113445B01194616F015FAF2
:1058A80002460D4B1A600C4B1B68002B03D11E21BE
:1058B8000920FEF785FF084B1868FA7813461B0184
:1058C80013445B011A460021FEF714FEFB681846D4
:1058D8001837BD4680BD00BF3408002180B582B0AE
:1058E80000AF0220FFF730FD0346FB71074B186835
:1058F800FA7913461B0113445B011A460021FEF78F
:10590800F9FD00BF0837BD4680BD00BF340800213F
:1059180080B584B000AF0346FB710220FFF714FD89
:105928000346FB73FA79FB7B9A4208D2064B196847
:10593800FA7913461B0113445B010B4400E0002372
:1059480018461037BD4680BD3408002110B5002325
:105958000124094A20FA03F1C90709D504FA03F119
:10596800C2F88010BFF34F8FBFF36F8FC2F880115A
:105978000133202BEED110BD00E100E008B5430053
:1059880042BF0022174BC3F80425820B82EA50322B
:1059980012F0010203D065211B20FEF711FF10F45D
:1059A800C04F18D00121104B4FF0FF305960C3F899
:1059B800080303F580539960C3F80022C3F808036D
:1059C800C3F80025C3F804159960C3F80803C3F8A1
:1059D8000025C3F80415054B40F6FF72C3F80825E7
:1059E80008BD00BF0000084100D0004100F00041A0
:1059F80038B50C4B04460D461860FFF7BFFF20462C
:105A0800FFF7A4FF00F012F8074B40F6FF72C3F847
:105A1800082500F099FC284600F0C2F8BDE8384097
:105A280000F05CBC3808002100F0004108B50748C8
:105A380014F09CFE18B124211D20FEF7C1FE044875
:105A480014F094FE08B12821F6E708BD3C080021AF
:105A58003D0800212DE9F74F314D82463148D5F8F0
:105A680004352C46304F019314F084FE064610B9D5
:105A7800384614F08EFE4FF001080023DFF8B0B06E
:105A8800C4F80480C4F80031C4F80431C4F804A58B
:105A9800C4F80080D4F8003113B9D4F8043173B1D4
:105AA800D5F80431002BE8D12EB3019B1E48C5F868
:105AB800043514F05FFE002003B0BDE8F08FDBF87A
:105AC8001030DB06E6D5194B4FF40052C3F880219D
